{
  "contractName": "HasNoEther",
  "abi": [
    {
      "constant": true,
      "inputs": [],
      "name": "owner",
      "outputs": [
        {
          "name": "",
          "type": "address"
        }
      ],
      "payable": false,
      "stateMutability": "view",
      "type": "function"
    },
    {
      "constant": false,
      "inputs": [
        {
          "name": "newOwner",
          "type": "address"
        }
      ],
      "name": "transferOwnership",
      "outputs": [],
      "payable": false,
      "stateMutability": "nonpayable",
      "type": "function"
    },
    {
      "inputs": [],
      "payable": true,
      "stateMutability": "payable",
      "type": "constructor"
    },
    {
      "payable": false,
      "stateMutability": "nonpayable",
      "type": "fallback"
    },
    {
      "anonymous": false,
      "inputs": [
        {
          "indexed": true,
          "name": "previousOwner",
          "type": "address"
        },
        {
          "indexed": true,
          "name": "newOwner",
          "type": "address"
        }
      ],
      "name": "OwnershipTransferred",
      "type": "event"
    },
    {
      "constant": false,
      "inputs": [],
      "name": "reclaimEther",
      "outputs": [],
      "payable": false,
      "stateMutability": "nonpayable",
      "type": "function"
    }
  ],
  "bytecode": "0x6060604052336000806101000a81548173ffffffffffffffffffffffffffffffffffffffff021916908373ffffffffffffffffffffffffffffffffffffffff16021790555060003414151561005357600080fd5b61037f806100626000396000f300606060405260043610610057576000357c0100000000000000000000000000000000000000000000000000000000900463ffffffff1680638da5cb5b146100645780639f727c27146100b9578063f2fde38b146100ce575b341561006257600080fd5b005b341561006f57600080fd5b610077610107565b604051808273ffffffffffffffffffffffffffffffffffffffff1673ffffffffffffffffffffffffffffffffffffffff16815260200191505060405180910390f35b34156100c457600080fd5b6100cc61012c565b005b34156100d957600080fd5b610105600480803573ffffffffffffffffffffffffffffffffffffffff169060200190919050506101fe565b005b6000809054906101000a900473ffffffffffffffffffffffffffffffffffffffff1681565b6000809054906101000a900473ffffffffffffffffffffffffffffffffffffffff1673ffffffffffffffffffffffffffffffffffffffff163373ffffffffffffffffffffffffffffffffffffffff1614151561018757600080fd5b6000809054906101000a900473ffffffffffffffffffffffffffffffffffffffff1673ffffffffffffffffffffffffffffffffffffffff166108fc3073ffffffffffffffffffffffffffffffffffffffff16319081150290604051600060405180830381858888f1935050505015156101fc57fe5b565b6000809054906101000a900473ffffffffffffffffffffffffffffffffffffffff1673ffffffffffffffffffffffffffffffffffffffff163373ffffffffffffffffffffffffffffffffffffffff1614151561025957600080fd5b600073ffffffffffffffffffffffffffffffffffffffff168173ffffffffffffffffffffffffffffffffffffffff161415151561029557600080fd5b8073ffffffffffffffffffffffffffffffffffffffff166000809054906101000a900473ffffffffffffffffffffffffffffffffffffffff1673ffffffffffffffffffffffffffffffffffffffff167f8be0079c531659141344cd1fd0a4f28419497f9722a3daafe3b4186f6b6457e060405160405180910390a3806000806101000a81548173ffffffffffffffffffffffffffffffffffffffff021916908373ffffffffffffffffffffffffffffffffffffffff160217905550505600a165627a7a72305820f7b973afb5269e026fa47bb67b99ecf98145fcff30ed6469f4ecc4cc4945e7610029",
  "source": "pragma solidity ^0.4.19;\r\n\r\nimport \"./Ownable.sol\";\r\n\r\n\r\n/**\r\n * @title Contracts that should not own Ether\r\n * @author Remco Bloemen <remco@2π.com>\r\n * @dev This tries to block incoming ether to prevent accidental loss of Ether. Should Ether end up\r\n * in the contract, it will allow the owner to reclaim this ether.\r\n * @notice Ether can still be send to this contract by:\r\n * calling functions labeled `payable`\r\n * `selfdestruct(contract_address)`\r\n * mining directly to the contract address\r\n*/\r\ncontract HasNoEther is Ownable {\r\n\r\n  /**\r\n  * @dev Constructor that rejects incoming Ether\r\n  * @dev The `payable` flag is added so we can access `msg.value` without compiler warning. If we\r\n  * leave out payable, then Solidity will allow inheriting contracts to implement a payable\r\n  * constructor. By doing it this way we prevent a payable constructor from working. Alternatively\r\n  * we could use assembly to access msg.value.\r\n  */\r\n  function HasNoEther() public payable {\r\n    require(msg.value == 0);\r\n  }\r\n\r\n  /**\r\n   * @dev Disallows direct send by settings a default function without the `payable` flag.\r\n   */\r\n  function() external {\r\n  }\r\n\r\n  /**\r\n   * @dev Transfer all Ether held by the contract to the owner.\r\n   */\r\n  function reclaimEther() external onlyOwner {\r\n    assert(owner.send(this.balance));\r\n  }\r\n}\r\n",
  "sourcePath": "C:\\Users\\DXenu\\Desktop\\box\\demo_contract\\contracts\\zeppelin\\HasNoEther.sol",
  "compiler": {
    "name": "solc",
    "version": "0.4.19+commit.c4cbbb05.Emscripten.clang"
  },
  "schemaVersion": "2.0.0",
  "updatedAt": "2018-03-22T19:58:31.241Z"
}