{
  "contractName": "PowerPiperToken",
  "abi": [
    {
      "constant": true,
      "inputs": [],
      "name": "mintingFinished",
      "outputs": [
        {
          "name": "",
          "type": "bool"
        }
      ],
      "payable": false,
      "stateMutability": "view",
      "type": "function"
    },
    {
      "constant": true,
      "inputs": [],
      "name": "name",
      "outputs": [
        {
          "name": "",
          "type": "string"
        }
      ],
      "payable": false,
      "stateMutability": "view",
      "type": "function"
    },
    {
      "constant": false,
      "inputs": [
        {
          "name": "_spender",
          "type": "address"
        },
        {
          "name": "_value",
          "type": "uint256"
        }
      ],
      "name": "approve",
      "outputs": [
        {
          "name": "",
          "type": "bool"
        }
      ],
      "payable": false,
      "stateMutability": "nonpayable",
      "type": "function"
    },
    {
      "constant": false,
      "inputs": [
        {
          "name": "token",
          "type": "address"
        }
      ],
      "name": "reclaimToken",
      "outputs": [],
      "payable": false,
      "stateMutability": "nonpayable",
      "type": "function"
    },
    {
      "constant": true,
      "inputs": [],
      "name": "totalSupply",
      "outputs": [
        {
          "name": "",
          "type": "uint256"
        }
      ],
      "payable": false,
      "stateMutability": "view",
      "type": "function"
    },
    {
      "constant": false,
      "inputs": [
        {
          "name": "_from",
          "type": "address"
        },
        {
          "name": "_to",
          "type": "address"
        },
        {
          "name": "_value",
          "type": "uint256"
        }
      ],
      "name": "transferFrom",
      "outputs": [
        {
          "name": "",
          "type": "bool"
        }
      ],
      "payable": false,
      "stateMutability": "nonpayable",
      "type": "function"
    },
    {
      "constant": false,
      "inputs": [
        {
          "name": "contractAddr",
          "type": "address"
        }
      ],
      "name": "reclaimContract",
      "outputs": [],
      "payable": false,
      "stateMutability": "nonpayable",
      "type": "function"
    },
    {
      "constant": true,
      "inputs": [],
      "name": "decimals",
      "outputs": [
        {
          "name": "",
          "type": "uint8"
        }
      ],
      "payable": false,
      "stateMutability": "view",
      "type": "function"
    },
    {
      "constant": false,
      "inputs": [
        {
          "name": "_to",
          "type": "address"
        },
        {
          "name": "_amount",
          "type": "uint256"
        }
      ],
      "name": "mint",
      "outputs": [
        {
          "name": "",
          "type": "bool"
        }
      ],
      "payable": false,
      "stateMutability": "nonpayable",
      "type": "function"
    },
    {
      "constant": false,
      "inputs": [
        {
          "name": "_spender",
          "type": "address"
        },
        {
          "name": "_subtractedValue",
          "type": "uint256"
        }
      ],
      "name": "decreaseApproval",
      "outputs": [
        {
          "name": "",
          "type": "bool"
        }
      ],
      "payable": false,
      "stateMutability": "nonpayable",
      "type": "function"
    },
    {
      "constant": false,
      "inputs": [
        {
          "name": "_owner",
          "type": "address"
        }
      ],
      "name": "recoverBalance",
      "outputs": [],
      "payable": true,
      "stateMutability": "payable",
      "type": "function"
    },
    {
      "constant": true,
      "inputs": [
        {
          "name": "_owner",
          "type": "address"
        }
      ],
      "name": "balanceOf",
      "outputs": [
        {
          "name": "balance",
          "type": "uint256"
        }
      ],
      "payable": false,
      "stateMutability": "view",
      "type": "function"
    },
    {
      "constant": false,
      "inputs": [],
      "name": "finishMinting",
      "outputs": [
        {
          "name": "",
          "type": "bool"
        }
      ],
      "payable": false,
      "stateMutability": "nonpayable",
      "type": "function"
    },
    {
      "constant": true,
      "inputs": [],
      "name": "owner",
      "outputs": [
        {
          "name": "",
          "type": "address"
        }
      ],
      "payable": false,
      "stateMutability": "view",
      "type": "function"
    },
    {
      "constant": true,
      "inputs": [],
      "name": "symbol",
      "outputs": [
        {
          "name": "",
          "type": "string"
        }
      ],
      "payable": false,
      "stateMutability": "view",
      "type": "function"
    },
    {
      "constant": false,
      "inputs": [],
      "name": "reclaimEther",
      "outputs": [],
      "payable": false,
      "stateMutability": "nonpayable",
      "type": "function"
    },
    {
      "constant": false,
      "inputs": [
        {
          "name": "_to",
          "type": "address"
        },
        {
          "name": "_value",
          "type": "uint256"
        }
      ],
      "name": "transfer",
      "outputs": [
        {
          "name": "",
          "type": "bool"
        }
      ],
      "payable": false,
      "stateMutability": "nonpayable",
      "type": "function"
    },
    {
      "constant": true,
      "inputs": [
        {
          "name": "from_",
          "type": "address"
        },
        {
          "name": "value_",
          "type": "uint256"
        },
        {
          "name": "data_",
          "type": "bytes"
        }
      ],
      "name": "tokenFallback",
      "outputs": [],
      "payable": false,
      "stateMutability": "pure",
      "type": "function"
    },
    {
      "constant": false,
      "inputs": [
        {
          "name": "_spender",
          "type": "address"
        },
        {
          "name": "_addedValue",
          "type": "uint256"
        }
      ],
      "name": "increaseApproval",
      "outputs": [
        {
          "name": "",
          "type": "bool"
        }
      ],
      "payable": false,
      "stateMutability": "nonpayable",
      "type": "function"
    },
    {
      "constant": true,
      "inputs": [
        {
          "name": "",
          "type": "address"
        }
      ],
      "name": "getLoss",
      "outputs": [
        {
          "name": "receiver",
          "type": "address"
        },
        {
          "name": "initialBlockNumber",
          "type": "uint256"
        }
      ],
      "payable": false,
      "stateMutability": "view",
      "type": "function"
    },
    {
      "constant": true,
      "inputs": [
        {
          "name": "_owner",
          "type": "address"
        },
        {
          "name": "_spender",
          "type": "address"
        }
      ],
      "name": "allowance",
      "outputs": [
        {
          "name": "",
          "type": "uint256"
        }
      ],
      "payable": false,
      "stateMutability": "view",
      "type": "function"
    },
    {
      "constant": false,
      "inputs": [
        {
          "name": "newOwner",
          "type": "address"
        }
      ],
      "name": "transferOwnership",
      "outputs": [],
      "payable": false,
      "stateMutability": "nonpayable",
      "type": "function"
    },
    {
      "constant": true,
      "inputs": [
        {
          "name": "_owner",
          "type": "address"
        }
      ],
      "name": "existedLoss",
      "outputs": [
        {
          "name": "",
          "type": "bool"
        }
      ],
      "payable": false,
      "stateMutability": "view",
      "type": "function"
    },
    {
      "payable": false,
      "stateMutability": "nonpayable",
      "type": "fallback"
    },
    {
      "anonymous": false,
      "inputs": [
        {
          "indexed": true,
          "name": "_addr",
          "type": "address"
        },
        {
          "indexed": false,
          "name": "_index",
          "type": "uint256"
        },
        {
          "indexed": false,
          "name": "_email",
          "type": "bytes32"
        },
        {
          "indexed": false,
          "name": "_firstName",
          "type": "bytes32"
        },
        {
          "indexed": false,
          "name": "_lastName",
          "type": "bytes32"
        }
      ],
      "name": "NewUser",
      "type": "event"
    },
    {
      "anonymous": false,
      "inputs": [
        {
          "indexed": true,
          "name": "_addr",
          "type": "address"
        },
        {
          "indexed": true,
          "name": "_userAddr",
          "type": "address"
        },
        {
          "indexed": false,
          "name": "_index",
          "type": "uint256"
        },
        {
          "indexed": false,
          "name": "_msq",
          "type": "uint8"
        },
        {
          "indexed": false,
          "name": "_kwh",
          "type": "uint8"
        },
        {
          "indexed": false,
          "name": "_price",
          "type": "uint16"
        }
      ],
      "name": "NewPlace",
      "type": "event"
    },
    {
      "anonymous": false,
      "inputs": [
        {
          "indexed": true,
          "name": "_addr",
          "type": "address"
        },
        {
          "indexed": true,
          "name": "_userAddr",
          "type": "address"
        },
        {
          "indexed": false,
          "name": "_index",
          "type": "uint256"
        },
        {
          "indexed": false,
          "name": "_kwh",
          "type": "uint8"
        },
        {
          "indexed": false,
          "name": "_price",
          "type": "uint16"
        }
      ],
      "name": "NewEquipment",
      "type": "event"
    },
    {
      "anonymous": false,
      "inputs": [
        {
          "indexed": true,
          "name": "_addr",
          "type": "address"
        },
        {
          "indexed": false,
          "name": "_index",
          "type": "uint256"
        },
        {
          "indexed": false,
          "name": "_email",
          "type": "bytes32"
        },
        {
          "indexed": false,
          "name": "_firstName",
          "type": "bytes32"
        },
        {
          "indexed": false,
          "name": "_lastName",
          "type": "bytes32"
        }
      ],
      "name": "UpdateUser",
      "type": "event"
    },
    {
      "anonymous": false,
      "inputs": [
        {
          "indexed": true,
          "name": "_addr",
          "type": "address"
        },
        {
          "indexed": true,
          "name": "_userAddr",
          "type": "address"
        },
        {
          "indexed": false,
          "name": "_index",
          "type": "uint256"
        },
        {
          "indexed": false,
          "name": "_msq",
          "type": "uint8"
        },
        {
          "indexed": false,
          "name": "_kwh",
          "type": "uint8"
        },
        {
          "indexed": false,
          "name": "_price",
          "type": "uint16"
        }
      ],
      "name": "UpdatePlace",
      "type": "event"
    },
    {
      "anonymous": false,
      "inputs": [
        {
          "indexed": true,
          "name": "_addr",
          "type": "address"
        },
        {
          "indexed": true,
          "name": "_userAddr",
          "type": "address"
        },
        {
          "indexed": false,
          "name": "_index",
          "type": "uint256"
        },
        {
          "indexed": false,
          "name": "_kwh",
          "type": "uint8"
        },
        {
          "indexed": false,
          "name": "_price",
          "type": "uint16"
        }
      ],
      "name": "UpdateEquipment",
      "type": "event"
    },
    {
      "anonymous": false,
      "inputs": [
        {
          "indexed": true,
          "name": "_addr",
          "type": "address"
        },
        {
          "indexed": false,
          "name": "_index",
          "type": "uint256"
        }
      ],
      "name": "DeleteUser",
      "type": "event"
    },
    {
      "anonymous": false,
      "inputs": [
        {
          "indexed": true,
          "name": "_addr",
          "type": "address"
        },
        {
          "indexed": false,
          "name": "_index",
          "type": "uint256"
        }
      ],
      "name": "DeletePlace",
      "type": "event"
    },
    {
      "anonymous": false,
      "inputs": [
        {
          "indexed": true,
          "name": "_addr",
          "type": "address"
        },
        {
          "indexed": false,
          "name": "_index",
          "type": "uint256"
        }
      ],
      "name": "DeleteEquipment",
      "type": "event"
    },
    {
      "anonymous": false,
      "inputs": [
        {
          "indexed": true,
          "name": "_owner",
          "type": "address"
        },
        {
          "indexed": true,
          "name": "_receiver",
          "type": "address"
        },
        {
          "indexed": false,
          "name": "_state",
          "type": "bool"
        }
      ],
      "name": "RecoverBalance",
      "type": "event"
    },
    {
      "anonymous": false,
      "inputs": [
        {
          "indexed": true,
          "name": "to",
          "type": "address"
        },
        {
          "indexed": false,
          "name": "amount",
          "type": "uint256"
        }
      ],
      "name": "Mint",
      "type": "event"
    },
    {
      "anonymous": false,
      "inputs": [],
      "name": "MintFinished",
      "type": "event"
    },
    {
      "anonymous": false,
      "inputs": [
        {
          "indexed": true,
          "name": "previousOwner",
          "type": "address"
        },
        {
          "indexed": true,
          "name": "newOwner",
          "type": "address"
        }
      ],
      "name": "OwnershipTransferred",
      "type": "event"
    },
    {
      "anonymous": false,
      "inputs": [
        {
          "indexed": true,
          "name": "owner",
          "type": "address"
        },
        {
          "indexed": true,
          "name": "spender",
          "type": "address"
        },
        {
          "indexed": false,
          "name": "value",
          "type": "uint256"
        }
      ],
      "name": "Approval",
      "type": "event"
    },
    {
      "anonymous": false,
      "inputs": [
        {
          "indexed": true,
          "name": "from",
          "type": "address"
        },
        {
          "indexed": true,
          "name": "to",
          "type": "address"
        },
        {
          "indexed": false,
          "name": "value",
          "type": "uint256"
        }
      ],
      "name": "Transfer",
      "type": "event"
    },
    {
      "constant": true,
      "inputs": [
        {
          "name": "_addr",
          "type": "address"
        }
      ],
      "name": "existsUser",
      "outputs": [
        {
          "name": "isIndexed",
          "type": "bool"
        }
      ],
      "payable": false,
      "stateMutability": "view",
      "type": "function"
    },
    {
      "constant": true,
      "inputs": [
        {
          "name": "_addr",
          "type": "address"
        }
      ],
      "name": "existsPlace",
      "outputs": [
        {
          "name": "isIndexed",
          "type": "bool"
        }
      ],
      "payable": false,
      "stateMutability": "view",
      "type": "function"
    },
    {
      "constant": true,
      "inputs": [
        {
          "name": "_addr",
          "type": "address"
        }
      ],
      "name": "existsEquipment",
      "outputs": [
        {
          "name": "isIndexed",
          "type": "bool"
        }
      ],
      "payable": false,
      "stateMutability": "view",
      "type": "function"
    },
    {
      "constant": false,
      "inputs": [
        {
          "name": "_addr",
          "type": "address"
        },
        {
          "name": "_email",
          "type": "bytes32"
        },
        {
          "name": "_firstName",
          "type": "bytes32"
        },
        {
          "name": "_lastName",
          "type": "bytes32"
        }
      ],
      "name": "newtUser",
      "outputs": [
        {
          "name": "index",
          "type": "uint256"
        }
      ],
      "payable": false,
      "stateMutability": "nonpayable",
      "type": "function"
    },
    {
      "constant": false,
      "inputs": [
        {
          "name": "_addr",
          "type": "address"
        },
        {
          "name": "_userAddr",
          "type": "address"
        },
        {
          "name": "_msq",
          "type": "uint8"
        },
        {
          "name": "_kwh",
          "type": "uint8"
        },
        {
          "name": "_price",
          "type": "uint16"
        }
      ],
      "name": "newPlace",
      "outputs": [
        {
          "name": "index",
          "type": "uint256"
        }
      ],
      "payable": false,
      "stateMutability": "nonpayable",
      "type": "function"
    },
    {
      "constant": false,
      "inputs": [
        {
          "name": "_addr",
          "type": "address"
        },
        {
          "name": "_userAddr",
          "type": "address"
        },
        {
          "name": "_kwh",
          "type": "uint8"
        },
        {
          "name": "_price",
          "type": "uint16"
        }
      ],
      "name": "newEquipment",
      "outputs": [
        {
          "name": "index",
          "type": "uint256"
        }
      ],
      "payable": false,
      "stateMutability": "nonpayable",
      "type": "function"
    },
    {
      "constant": true,
      "inputs": [
        {
          "name": "_addr",
          "type": "address"
        }
      ],
      "name": "getUser",
      "outputs": [
        {
          "name": "index",
          "type": "uint256"
        },
        {
          "name": "email",
          "type": "bytes32"
        },
        {
          "name": "firstName",
          "type": "bytes32"
        },
        {
          "name": "lastName",
          "type": "bytes32"
        }
      ],
      "payable": false,
      "stateMutability": "view",
      "type": "function"
    },
    {
      "constant": true,
      "inputs": [
        {
          "name": "_addr",
          "type": "address"
        }
      ],
      "name": "getPlace",
      "outputs": [
        {
          "name": "index",
          "type": "uint256"
        },
        {
          "name": "msq",
          "type": "uint8"
        },
        {
          "name": "kwh",
          "type": "uint8"
        },
        {
          "name": "price",
          "type": "uint16"
        }
      ],
      "payable": false,
      "stateMutability": "view",
      "type": "function"
    },
    {
      "constant": true,
      "inputs": [
        {
          "name": "_addr",
          "type": "address"
        }
      ],
      "name": "getEquipment",
      "outputs": [
        {
          "name": "index",
          "type": "uint256"
        },
        {
          "name": "kwh",
          "type": "uint8"
        },
        {
          "name": "price",
          "type": "uint16"
        }
      ],
      "payable": false,
      "stateMutability": "view",
      "type": "function"
    },
    {
      "constant": false,
      "inputs": [
        {
          "name": "_addr",
          "type": "address"
        },
        {
          "name": "_email",
          "type": "bytes32"
        },
        {
          "name": "_firstName",
          "type": "bytes32"
        },
        {
          "name": "_lastName",
          "type": "bytes32"
        }
      ],
      "name": "updateUser",
      "outputs": [
        {
          "name": "",
          "type": "bool"
        }
      ],
      "payable": false,
      "stateMutability": "nonpayable",
      "type": "function"
    },
    {
      "constant": false,
      "inputs": [
        {
          "name": "_addr",
          "type": "address"
        },
        {
          "name": "_userAddr",
          "type": "address"
        },
        {
          "name": "_msq",
          "type": "uint8"
        },
        {
          "name": "_kwh",
          "type": "uint8"
        },
        {
          "name": "_price",
          "type": "uint16"
        }
      ],
      "name": "updatePlace",
      "outputs": [
        {
          "name": "",
          "type": "bool"
        }
      ],
      "payable": false,
      "stateMutability": "nonpayable",
      "type": "function"
    },
    {
      "constant": false,
      "inputs": [
        {
          "name": "_addr",
          "type": "address"
        },
        {
          "name": "_userAddr",
          "type": "address"
        },
        {
          "name": "_kwh",
          "type": "uint8"
        },
        {
          "name": "_price",
          "type": "uint16"
        }
      ],
      "name": "updateEquipment",
      "outputs": [
        {
          "name": "",
          "type": "bool"
        }
      ],
      "payable": false,
      "stateMutability": "nonpayable",
      "type": "function"
    },
    {
      "constant": false,
      "inputs": [
        {
          "name": "_addr",
          "type": "address"
        }
      ],
      "name": "deleteUser",
      "outputs": [
        {
          "name": "index",
          "type": "uint256"
        }
      ],
      "payable": false,
      "stateMutability": "nonpayable",
      "type": "function"
    },
    {
      "constant": false,
      "inputs": [
        {
          "name": "_addr",
          "type": "address"
        }
      ],
      "name": "deletePlace",
      "outputs": [
        {
          "name": "index",
          "type": "uint256"
        }
      ],
      "payable": false,
      "stateMutability": "nonpayable",
      "type": "function"
    },
    {
      "constant": false,
      "inputs": [
        {
          "name": "_addr",
          "type": "address"
        }
      ],
      "name": "deleteEquipment",
      "outputs": [
        {
          "name": "index",
          "type": "uint256"
        }
      ],
      "payable": false,
      "stateMutability": "nonpayable",
      "type": "function"
    },
    {
      "constant": true,
      "inputs": [],
      "name": "getUserCount",
      "outputs": [
        {
          "name": "count",
          "type": "uint256"
        }
      ],
      "payable": false,
      "stateMutability": "view",
      "type": "function"
    },
    {
      "constant": true,
      "inputs": [],
      "name": "getPlaceCount",
      "outputs": [
        {
          "name": "count",
          "type": "uint256"
        }
      ],
      "payable": false,
      "stateMutability": "view",
      "type": "function"
    },
    {
      "constant": true,
      "inputs": [],
      "name": "getEquipmentCount",
      "outputs": [
        {
          "name": "count",
          "type": "uint256"
        }
      ],
      "payable": false,
      "stateMutability": "view",
      "type": "function"
    },
    {
      "constant": true,
      "inputs": [
        {
          "name": "index",
          "type": "uint256"
        }
      ],
      "name": "getUserAtIndex",
      "outputs": [
        {
          "name": "_addr",
          "type": "address"
        }
      ],
      "payable": false,
      "stateMutability": "view",
      "type": "function"
    },
    {
      "constant": true,
      "inputs": [
        {
          "name": "index",
          "type": "uint256"
        }
      ],
      "name": "getPlaceAtIndex",
      "outputs": [
        {
          "name": "_addr",
          "type": "address"
        }
      ],
      "payable": false,
      "stateMutability": "view",
      "type": "function"
    },
    {
      "constant": true,
      "inputs": [
        {
          "name": "index",
          "type": "uint256"
        }
      ],
      "name": "getEquipmentAtIndex",
      "outputs": [
        {
          "name": "_addr",
          "type": "address"
        }
      ],
      "payable": false,
      "stateMutability": "view",
      "type": "function"
    }
  ],
  "bytecode": "0x60606040526000600360146101000a81548160ff02191690831515021790555033600360006101000a81548173ffffffffffffffffffffffffffffffffffffffff021916908373ffffffffffffffffffffffffffffffffffffffff16021790555060003414151561006f57600080fd5b614a618061007e6000396000f30060606040526004361061021a576000357c0100000000000000000000000000000000000000000000000000000000900463ffffffff16806305d2035b1461022757806306fdde0314610254578063095ea7b3146102e2578063142478d61461033c57806317ffc320146103b257806318160ddd146103eb5780631aeb4c5614610414578063216d9fce1461049d57806323b872dd146105005780632a2bb4c4146105795780632aed7f3f146105ca578063313ce567146106035780633ed7c6d11461063257806340c10f191461067f5780635c60f226146106d9578063661884631461072657806368662ea0146107805780636f75cada146107ae5780636f77926b146107d757806370232d3f1461085157806370a082311461089e5780637b2f8f9b146108eb5780637d64bcb4146109545780638da5cb5b1461098157806395d89b41146109d65780639bd19ca914610a645780639f727c2714610adc578063a9059cbb14610af1578063b5cb15f714610b4b578063c0ee0b8a14610b74578063d5bdb6ec14610bca578063d73dd62314610c5f578063d74a946d14610cb9578063dd62ed3e14610d39578063e9ae769314610da5578063ecac117414610e2a578063f03ba3ee14610e7b578063f2fde38b14610ede578063f409e87d14610f17578063f53f35ff14610f68578063fa2b259c14610fdc578063fb7418dc1461106d578063ff67dada146110be578063ffcc7bbf146110e7575b341561022557600080fd5b005b341561023257600080fd5b61023a61114a565b604051808215151515815260200191505060405180910390f35b341561025f57600080fd5b61026761115d565b6040518080602001828103825283818151815260200191508051906020019080838360005b838110156102a757808201518184015260208101905061028c565b50505050905090810190601f1680156102d45780820380516001836020036101000a031916815260200191505b509250505060405180910390f35b34156102ed57600080fd5b610322600480803573ffffffffffffffffffffffffffffffffffffffff16906020019091908035906020019091905050611196565b604051808215151515815260200191505060405180910390f35b341561034757600080fd5b610373600480803573ffffffffffffffffffffffffffffffffffffffff16906020019091905050611288565b604051808581526020018460ff1660ff1681526020018360ff1660ff1681526020018261ffff1661ffff16815260200194505050505060405180910390f35b34156103bd57600080fd5b6103e9600480803573ffffffffffffffffffffffffffffffffffffffff169060200190919050506113ec565b005b34156103f657600080fd5b6103fe61155b565b6040518082815260200191505060405180910390f35b341561041f57600080fd5b610483600480803573ffffffffffffffffffffffffffffffffffffffff1690602001909190803573ffffffffffffffffffffffffffffffffffffffff1690602001909190803560ff1690602001909190803561ffff16906020019091905050611565565b604051808215151515815260200191505060405180910390f35b34156104a857600080fd5b6104be6004808035906020019091905050611726565b604051808273ffffffffffffffffffffffffffffffffffffffff1673ffffffffffffffffffffffffffffffffffffffff16815260200191505060405180910390f35b341561050b57600080fd5b61055f600480803573ffffffffffffffffffffffffffffffffffffffff1690602001909190803573ffffffffffffffffffffffffffffffffffffffff1690602001909190803590602001909190505061176a565b604051808215151515815260200191505060405180910390f35b341561058457600080fd5b6105b0600480803573ffffffffffffffffffffffffffffffffffffffff16906020019091905050611b24565b604051808215151515815260200191505060405180910390f35b34156105d557600080fd5b610601600480803573ffffffffffffffffffffffffffffffffffffffff16906020019091905050611bef565b005b341561060e57600080fd5b610616611d24565b604051808260ff1660ff16815260200191505060405180910390f35b341561063d57600080fd5b610669600480803573ffffffffffffffffffffffffffffffffffffffff16906020019091905050611d29565b6040518082815260200191505060405180910390f35b341561068a57600080fd5b6106bf600480803573ffffffffffffffffffffffffffffffffffffffff16906020019091908035906020019091905050612065565b604051808215151515815260200191505060405180910390f35b34156106e457600080fd5b610710600480803573ffffffffffffffffffffffffffffffffffffffff1690602001909190505061224b565b6040518082815260200191505060405180910390f35b341561073157600080fd5b610766600480803573ffffffffffffffffffffffffffffffffffffffff16906020019091908035906020019091905050612547565b604051808215151515815260200191505060405180910390f35b6107ac600480803573ffffffffffffffffffffffffffffffffffffffff169060200190919050506127d8565b005b34156107b957600080fd5b6107c1612936565b6040518082815260200191505060405180910390f35b34156107e257600080fd5b61080e600480803573ffffffffffffffffffffffffffffffffffffffff16906020019091905050612943565b6040518085815260200184600019166000191681526020018360001916600019168152602001826000191660001916815260200194505050505060405180910390f35b341561085c57600080fd5b610888600480803573ffffffffffffffffffffffffffffffffffffffff16906020019091905050612a7f565b6040518082815260200191505060405180910390f35b34156108a957600080fd5b6108d5600480803573ffffffffffffffffffffffffffffffffffffffff16906020019091905050612e18565b6040518082815260200191505060405180910390f35b34156108f657600080fd5b610922600480803573ffffffffffffffffffffffffffffffffffffffff16906020019091905050612e60565b604051808481526020018360ff1660ff1681526020018261ffff1661ffff168152602001935050505060405180910390f35b341561095f57600080fd5b610967612f71565b604051808215151515815260200191505060405180910390f35b341561098c57600080fd5b610994613039565b604051808273ffffffffffffffffffffffffffffffffffffffff1673ffffffffffffffffffffffffffffffffffffffff16815260200191505060405180910390f35b34156109e157600080fd5b6109e961305f565b6040518080602001828103825283818151815260200191508051906020019080838360005b83811015610a29578082015181840152602081019050610a0e565b50505050905090810190601f168015610a565780820380516001836020036101000a031916815260200191505b509250505060405180910390f35b3415610a6f57600080fd5b610ac2600480803573ffffffffffffffffffffffffffffffffffffffff16906020019091908035600019169060200190919080356000191690602001909190803560001916906020019091905050613098565b604051808215151515815260200191505060405180910390f35b3415610ae757600080fd5b610aef613262565b005b3415610afc57600080fd5b610b31600480803573ffffffffffffffffffffffffffffffffffffffff16906020019091908035906020019091905050613336565b604051808215151515815260200191505060405180910390f35b3415610b5657600080fd5b610b5e613555565b6040518082815260200191505060405180910390f35b3415610b7f57600080fd5b610bc8600480803573ffffffffffffffffffffffffffffffffffffffff169060200190919080359060200190919080359060200190820180359060200191909192905050613562565b005b3415610bd557600080fd5b610c45600480803573ffffffffffffffffffffffffffffffffffffffff1690602001909190803573ffffffffffffffffffffffffffffffffffffffff1690602001909190803560ff1690602001909190803560ff1690602001909190803561ffff16906020019091905050613567565b604051808215151515815260200191505060405180910390f35b3415610c6a57600080fd5b610c9f600480803573ffffffffffffffffffffffffffffffffffffffff16906020019091908035906020019091905050613792565b604051808215151515815260200191505060405180910390f35b3415610cc457600080fd5b610cf0600480803573ffffffffffffffffffffffffffffffffffffffff1690602001909190505061398e565b604051808373ffffffffffffffffffffffffffffffffffffffff1673ffffffffffffffffffffffffffffffffffffffff1681526020018281526020019250505060405180910390f35b3415610d4457600080fd5b610d8f600480803573ffffffffffffffffffffffffffffffffffffffff1690602001909190803573ffffffffffffffffffffffffffffffffffffffff169060200190919050506139d2565b6040518082815260200191505060405180910390f35b3415610db057600080fd5b610e14600480803573ffffffffffffffffffffffffffffffffffffffff1690602001909190803573ffffffffffffffffffffffffffffffffffffffff1690602001909190803560ff1690602001909190803561ffff16906020019091905050613a59565b6040518082815260200191505060405180910390f35b3415610e3557600080fd5b610e61600480803573ffffffffffffffffffffffffffffffffffffffff16906020019091905050613def565b604051808215151515815260200191505060405180910390f35b3415610e8657600080fd5b610e9c6004808035906020019091905050613eba565b604051808273ffffffffffffffffffffffffffffffffffffffff1673ffffffffffffffffffffffffffffffffffffffff16815260200191505060405180910390f35b3415610ee957600080fd5b610f15600480803573ffffffffffffffffffffffffffffffffffffffff16906020019091905050613efe565b005b3415610f2257600080fd5b610f4e600480803573ffffffffffffffffffffffffffffffffffffffff16906020019091905050614056565b604051808215151515815260200191505060405180910390f35b3415610f7357600080fd5b610fc6600480803573ffffffffffffffffffffffffffffffffffffffff16906020019091908035600019169060200190919080356000191690602001909190803560001916906020019091905050614121565b6040518082815260200191505060405180910390f35b3415610fe757600080fd5b611057600480803573ffffffffffffffffffffffffffffffffffffffff1690602001909190803573ffffffffffffffffffffffffffffffffffffffff1690602001909190803560ff1690602001909190803560ff1690602001909190803561ffff1690602001909190505061439c565b6040518082815260200191505060405180910390f35b341561107857600080fd5b6110a4600480803573ffffffffffffffffffffffffffffffffffffffff1690602001909190505061479c565b604051808215151515815260200191505060405180910390f35b34156110c957600080fd5b6110d161485d565b6040518082815260200191505060405180910390f35b34156110f257600080fd5b611108600480803590602001909190505061486a565b604051808273ffffffffffffffffffffffffffffffffffffffff1673ffffffffffffffffffffffffffffffffffffffff16815260200191505060405180910390f35b600360149054906101000a900460ff1681565b6040805190810160405280600f81526020017f506f7765725069706572546f6b656e000000000000000000000000000000000081525081565b600081600260003373ffffffffffffffffffffffffffffffffffffffff1673ffffffffffffffffffffffffffffffffffffffff16815260200190815260200160002060008573ffffffffffffffffffffffffffffffffffffffff1673ffffffffffffffffffffffffffffffffffffffff168152602001908152602001600020819055508273ffffffffffffffffffffffffffffffffffffffff163373ffffffffffffffffffffffffffffffffffffffff167f8c5be1e5ebec7d5bd14f71427d1e84f3dd0314c0f7b2291e5b200ac8c7c3b925846040518082815260200191505060405180910390a36001905092915050565b6000806000806001151561129b86611b24565b15151415156112a957600080fd5b600660008673ffffffffffffffffffffffffffffffffffffffff1673ffffffffffffffffffffffffffffffffffffffff16815260200190815260200160002060000154600660008773ffffffffffffffffffffffffffffffffffffffff1673ffffffffffffffffffffffffffffffffffffffff16815260200190815260200160002060010160009054906101000a900460ff16600660008873ffffffffffffffffffffffffffffffffffffffff1673ffffffffffffffffffffffffffffffffffffffff16815260200190815260200160002060010160019054906101000a900460ff16600660008973ffffffffffffffffffffffffffffffffffffffff1673ffffffffffffffffffffffffffffffffffffffff16815260200190815260200160002060010160029054906101000a900461ffff1693509350935093509193509193565b6000600360009054906101000a900473ffffffffffffffffffffffffffffffffffffffff1673ffffffffffffffffffffffffffffffffffffffff163373ffffffffffffffffffffffffffffffffffffffff1614151561144a57600080fd5b8173ffffffffffffffffffffffffffffffffffffffff166370a08231306000604051602001526040518263ffffffff167c0100000000000000000000000000000000000000000000000000000000028152600401808273ffffffffffffffffffffffffffffffffffffffff1673ffffffffffffffffffffffffffffffffffffffff168152602001915050602060405180830381600087803b15156114ed57600080fd5b6102c65a03f115156114fe57600080fd5b505050604051805190509050611557600360009054906101000a900473ffffffffffffffffffffffffffffffffffffffff16828473ffffffffffffffffffffffffffffffffffffffff166148ae9092919063ffffffff16565b5050565b6000600154905090565b60006001151561157486613def565b151514151561158257600080fd5b6001151561158f85614056565b151514151561159d57600080fd5b82600760008773ffffffffffffffffffffffffffffffffffffffff1673ffffffffffffffffffffffffffffffffffffffff16815260200190815260200160002060010160006101000a81548160ff021916908360ff16021790555081600760008773ffffffffffffffffffffffffffffffffffffffff1673ffffffffffffffffffffffffffffffffffffffff16815260200190815260200160002060010160016101000a81548161ffff021916908361ffff1602179055508373ffffffffffffffffffffffffffffffffffffffff168573ffffffffffffffffffffffffffffffffffffffff167f0a4c250e9de61a8a976cda60c9c8f15010b642fba1c79edaa71c8a14764d5764600760008973ffffffffffffffffffffffffffffffffffffffff1673ffffffffffffffffffffffffffffffffffffffff168152602001908152602001600020600001548686604051808481526020018360ff1660ff1681526020018261ffff1661ffff168152602001935050505060405180910390a360019050949350505050565b6000600a8281548110151561173757fe5b906000526020600020900160009054906101000a900473ffffffffffffffffffffffffffffffffffffffff169050919050565b60008073ffffffffffffffffffffffffffffffffffffffff168373ffffffffffffffffffffffffffffffffffffffff16141515156117a757600080fd5b6000808573ffffffffffffffffffffffffffffffffffffffff1673ffffffffffffffffffffffffffffffffffffffff1681526020019081526020016000205482111515156117f457600080fd5b600260008573ffffffffffffffffffffffffffffffffffffffff1673ffffffffffffffffffffffffffffffffffffffff16815260200190815260200160002060003373ffffffffffffffffffffffffffffffffffffffff1673ffffffffffffffffffffffffffffffffffffffff16815260200190815260200160002054821115151561187f57600080fd5b6118d0826000808773ffffffffffffffffffffffffffffffffffffffff1673ffffffffffffffffffffffffffffffffffffffff1681526020019081526020016000205461498190919063ffffffff16565b6000808673ffffffffffffffffffffffffffffffffffffffff1673ffffffffffffffffffffffffffffffffffffffff16815260200190815260200160002081905550611963826000808673ffffffffffffffffffffffffffffffffffffffff1673ffffffffffffffffffffffffffffffffffffffff1681526020019081526020016000205461499a90919063ffffffff16565b6000808573ffffffffffffffffffffffffffffffffffffffff1673ffffffffffffffffffffffffffffffffffffffff16815260200190815260200160002081905550611a3482600260008773ffffffffffffffffffffffffffffffffffffffff1673ffffffffffffffffffffffffffffffffffffffff16815260200190815260200160002060003373ffffffffffffffffffffffffffffffffffffffff1673ffffffffffffffffffffffffffffffffffffffff1681526020019081526020016000205461498190919063ffffffff16565b600260008673ffffffffffffffffffffffffffffffffffffffff1673ffffffffffffffffffffffffffffffffffffffff16815260200190815260200160002060003373ffffffffffffffffffffffffffffffffffffffff1673ffffffffffffffffffffffffffffffffffffffff168152602001908152602001600020819055508273ffffffffffffffffffffffffffffffffffffffff168473ffffffffffffffffffffffffffffffffffffffff167fddf252ad1be2c89b69c2b068fc378daa952ba7f163c4a11628f55a4df523b3ef846040518082815260200191505060405180910390a3600190509392505050565b6000806009805490501415611b3c5760009050611bea565b8173ffffffffffffffffffffffffffffffffffffffff166009600660008573ffffffffffffffffffffffffffffffffffffffff1673ffffffffffffffffffffffffffffffffffffffff16815260200190815260200160002060000154815481101515611ba457fe5b906000526020600020900160009054906101000a900473ffffffffffffffffffffffffffffffffffffffff1673ffffffffffffffffffffffffffffffffffffffff161490505b919050565b6000600360009054906101000a900473ffffffffffffffffffffffffffffffffffffffff1673ffffffffffffffffffffffffffffffffffffffff163373ffffffffffffffffffffffffffffffffffffffff16141515611c4d57600080fd5b8190508073ffffffffffffffffffffffffffffffffffffffff1663f2fde38b600360009054906101000a900473ffffffffffffffffffffffffffffffffffffffff166040518263ffffffff167c0100000000000000000000000000000000000000000000000000000000028152600401808273ffffffffffffffffffffffffffffffffffffffff1673ffffffffffffffffffffffffffffffffffffffff168152602001915050600060405180830381600087803b1515611d0c57600080fd5b6102c65a03f11515611d1d57600080fd5b5050505050565b600381565b600080600060011515611d3b85613def565b1515141515611d4957600080fd5b600760008573ffffffffffffffffffffffffffffffffffffffff1673ffffffffffffffffffffffffffffffffffffffff168152602001908152602001600020600001549150600a6001600a8054905003815481101515611da557fe5b906000526020600020900160009054906101000a900473ffffffffffffffffffffffffffffffffffffffff16905080600a83815481101515611de357fe5b906000526020600020900160006101000a81548173ffffffffffffffffffffffffffffffffffffffff021916908373ffffffffffffffffffffffffffffffffffffffff16021790555081600760008373ffffffffffffffffffffffffffffffffffffffff1673ffffffffffffffffffffffffffffffffffffffff16815260200190815260200160002060000181905550600a805480919060019003611e8891906149b8565b508373ffffffffffffffffffffffffffffffffffffffff167fd148fe57b3fff28741992aeda9478edbabac766349efe9845531a6c5a49436f1836040518082815260200191505060405180910390a2600760008273ffffffffffffffffffffffffffffffffffffffff1673ffffffffffffffffffffffffffffffffffffffff16815260200190815260200160002060010160039054906101000a900473ffffffffffffffffffffffffffffffffffffffff1673ffffffffffffffffffffffffffffffffffffffff168173ffffffffffffffffffffffffffffffffffffffff167f0a4c250e9de61a8a976cda60c9c8f15010b642fba1c79edaa71c8a14764d576484600760008673ffffffffffffffffffffffffffffffffffffffff1673ffffffffffffffffffffffffffffffffffffffff16815260200190815260200160002060010160009054906101000a900460ff16600760008773ffffffffffffffffffffffffffffffffffffffff1673ffffffffffffffffffffffffffffffffffffffff16815260200190815260200160002060010160019054906101000a900461ffff16604051808481526020018360ff1660ff1681526020018261ffff1661ffff168152602001935050505060405180910390a38192505050919050565b6000600360009054906101000a900473ffffffffffffffffffffffffffffffffffffffff1673ffffffffffffffffffffffffffffffffffffffff163373ffffffffffffffffffffffffffffffffffffffff161415156120c357600080fd5b600360149054906101000a900460ff161515156120df57600080fd5b6120f48260015461499a90919063ffffffff16565b60018190555061214b826000808673ffffffffffffffffffffffffffffffffffffffff1673ffffffffffffffffffffffffffffffffffffffff1681526020019081526020016000205461499a90919063ffffffff16565b6000808573ffffffffffffffffffffffffffffffffffffffff1673ffffffffffffffffffffffffffffffffffffffff168152602001908152602001600020819055508273ffffffffffffffffffffffffffffffffffffffff167f0f6798a560793a54c3bcfe86a93cde1e73087d944c0ea20544137d4121396885836040518082815260200191505060405180910390a28273ffffffffffffffffffffffffffffffffffffffff16600073ffffffffffffffffffffffffffffffffffffffff167fddf252ad1be2c89b69c2b068fc378daa952ba7f163c4a11628f55a4df523b3ef846040518082815260200191505060405180910390a36001905092915050565b60008060006001151561225d85614056565b151514151561226b57600080fd5b600560008573ffffffffffffffffffffffffffffffffffffffff1673ffffffffffffffffffffffffffffffffffffffff16815260200190815260200160002060000154915060086001600880549050038154811015156122c757fe5b906000526020600020900160009054906101000a900473ffffffffffffffffffffffffffffffffffffffff1690508060088381548110151561230557fe5b906000526020600020900160006101000a81548173ffffffffffffffffffffffffffffffffffffffff021916908373ffffffffffffffffffffffffffffffffffffffff16021790555081600560008373ffffffffffffffffffffffffffffffffffffffff1673ffffffffffffffffffffffffffffffffffffffff1681526020019081526020016000206000018190555060088054809190600190036123aa91906149b8565b508373ffffffffffffffffffffffffffffffffffffffff167f117183c06981515bdfa0b70d0448d8eb6ba07648cda62ab7c2b4361eeff80a1b836040518082815260200191505060405180910390a28073ffffffffffffffffffffffffffffffffffffffff167f36cd692caa63e05d06ec64ae3a07dffe3b224fecb32af5fa7bc1469f5bcdde5783600560008573ffffffffffffffffffffffffffffffffffffffff1673ffffffffffffffffffffffffffffffffffffffff16815260200190815260200160002060010154600560008673ffffffffffffffffffffffffffffffffffffffff1673ffffffffffffffffffffffffffffffffffffffff16815260200190815260200160002060020154600560008773ffffffffffffffffffffffffffffffffffffffff1673ffffffffffffffffffffffffffffffffffffffff168152602001908152602001600020600301546040518085815260200184600019166000191681526020018360001916600019168152602001826000191660001916815260200194505050505060405180910390a28192505050919050565b600080600260003373ffffffffffffffffffffffffffffffffffffffff1673ffffffffffffffffffffffffffffffffffffffff16815260200190815260200160002060008573ffffffffffffffffffffffffffffffffffffffff1673ffffffffffffffffffffffffffffffffffffffff16815260200190815260200160002054905080831115612658576000600260003373ffffffffffffffffffffffffffffffffffffffff1673ffffffffffffffffffffffffffffffffffffffff16815260200190815260200160002060008673ffffffffffffffffffffffffffffffffffffffff1673ffffffffffffffffffffffffffffffffffffffff168152602001908152602001600020819055506126ec565b61266b838261498190919063ffffffff16565b600260003373ffffffffffffffffffffffffffffffffffffffff1673ffffffffffffffffffffffffffffffffffffffff16815260200190815260200160002060008673ffffffffffffffffffffffffffffffffffffffff1673ffffffffffffffffffffffffffffffffffffffff168152602001908152602001600020819055505b8373ffffffffffffffffffffffffffffffffffffffff163373ffffffffffffffffffffffffffffffffffffffff167f8c5be1e5ebec7d5bd14f71427d1e84f3dd0314c0f7b2291e5b200ac8c7c3b925600260003373ffffffffffffffffffffffffffffffffffffffff1673ffffffffffffffffffffffffffffffffffffffff16815260200190815260200160002060008873ffffffffffffffffffffffffffffffffffffffff1673ffffffffffffffffffffffffffffffffffffffff168152602001908152602001600020546040518082815260200191505060405180910390a3600191505092915050565b600080341115156127e857600080fd5b6127f18261479c565b1515156127fd57600080fd5b33905080600460008473ffffffffffffffffffffffffffffffffffffffff1673ffffffffffffffffffffffffffffffffffffffff16815260200190815260200160002060000160006101000a81548173ffffffffffffffffffffffffffffffffffffffff021916908373ffffffffffffffffffffffffffffffffffffffff16021790555043600460008473ffffffffffffffffffffffffffffffffffffffff1673ffffffffffffffffffffffffffffffffffffffff168152602001908152602001600020600101819055508073ffffffffffffffffffffffffffffffffffffffff168273ffffffffffffffffffffffffffffffffffffffff167fe90198ac3b36c091e5843f4ca94a37981cd21c7e69068e9f88df6be6c1177e6e6001604051808215151515815260200191505060405180910390a35050565b6000600980549050905090565b6000806000806001151561295686614056565b151514151561296457600080fd5b600560008673ffffffffffffffffffffffffffffffffffffffff1673ffffffffffffffffffffffffffffffffffffffff16815260200190815260200160002060000154600560008773ffffffffffffffffffffffffffffffffffffffff1673ffffffffffffffffffffffffffffffffffffffff16815260200190815260200160002060010154600560008873ffffffffffffffffffffffffffffffffffffffff1673ffffffffffffffffffffffffffffffffffffffff16815260200190815260200160002060020154600560008973ffffffffffffffffffffffffffffffffffffffff1673ffffffffffffffffffffffffffffffffffffffff1681526020019081526020016000206003015493509350935093509193509193565b600080600060011515612a9185611b24565b1515141515612a9f57600080fd5b600660008573ffffffffffffffffffffffffffffffffffffffff1673ffffffffffffffffffffffffffffffffffffffff1681526020019081526020016000206000015491506009600160098054905003815481101515612afb57fe5b906000526020600020900160009054906101000a900473ffffffffffffffffffffffffffffffffffffffff16905080600983815481101515612b3957fe5b906000526020600020900160006101000a81548173ffffffffffffffffffffffffffffffffffffffff021916908373ffffffffffffffffffffffffffffffffffffffff16021790555081600660008373ffffffffffffffffffffffffffffffffffffffff1673ffffffffffffffffffffffffffffffffffffffff168152602001908152602001600020600001819055506009805480919060019003612bde91906149b8565b508373ffffffffffffffffffffffffffffffffffffffff167f6c1d95bd25751045e988b768e3e9d37019d92428e694b456cc77d0eb83a49bd1836040518082815260200191505060405180910390a2600660008273ffffffffffffffffffffffffffffffffffffffff1673ffffffffffffffffffffffffffffffffffffffff16815260200190815260200160002060010160049054906101000a900473ffffffffffffffffffffffffffffffffffffffff1673ffffffffffffffffffffffffffffffffffffffff168173ffffffffffffffffffffffffffffffffffffffff167f14e6f8ed13bdc5b46b0fec74e94e70b199f0a484e034fb5ab0bb646db34f5f8a84600660008673ffffffffffffffffffffffffffffffffffffffff1673ffffffffffffffffffffffffffffffffffffffff16815260200190815260200160002060010160009054906101000a900460ff16600660008773ffffffffffffffffffffffffffffffffffffffff1673ffffffffffffffffffffffffffffffffffffffff16815260200190815260200160002060010160019054906101000a900460ff16600660008873ffffffffffffffffffffffffffffffffffffffff1673ffffffffffffffffffffffffffffffffffffffff16815260200190815260200160002060010160029054906101000a900461ffff16604051808581526020018460ff1660ff1681526020018360ff1660ff1681526020018261ffff1661ffff16815260200194505050505060405180910390a38192505050919050565b60008060008373ffffffffffffffffffffffffffffffffffffffff1673ffffffffffffffffffffffffffffffffffffffff168152602001908152602001600020549050919050565b600080600060011515612e7285613def565b1515141515612e8057600080fd5b600660008573ffffffffffffffffffffffffffffffffffffffff1673ffffffffffffffffffffffffffffffffffffffff16815260200190815260200160002060000154600660008673ffffffffffffffffffffffffffffffffffffffff1673ffffffffffffffffffffffffffffffffffffffff16815260200190815260200160002060010160019054906101000a900460ff16600660008773ffffffffffffffffffffffffffffffffffffffff1673ffffffffffffffffffffffffffffffffffffffff16815260200190815260200160002060010160029054906101000a900461ffff169250925092509193909250565b6000600360009054906101000a900473ffffffffffffffffffffffffffffffffffffffff1673ffffffffffffffffffffffffffffffffffffffff163373ffffffffffffffffffffffffffffffffffffffff16141515612fcf57600080fd5b600360149054906101000a900460ff16151515612feb57600080fd5b6001600360146101000a81548160ff0219169083151502179055507fae5184fba832cb2b1f702aca6117b8d265eaf03ad33eb133f19dde0f5920fa0860405160405180910390a16001905090565b600360009054906101000a900473ffffffffffffffffffffffffffffffffffffffff1681565b6040805190810160405280600381526020017f505750000000000000000000000000000000000000000000000000000000000081525081565b6000600115156130a786614056565b15151415156130b557600080fd5b83600560008773ffffffffffffffffffffffffffffffffffffffff1673ffffffffffffffffffffffffffffffffffffffff168152602001908152602001600020600101816000191690555082600560008773ffffffffffffffffffffffffffffffffffffffff1673ffffffffffffffffffffffffffffffffffffffff168152602001908152602001600020600201816000191690555081600560008773ffffffffffffffffffffffffffffffffffffffff1673ffffffffffffffffffffffffffffffffffffffff16815260200190815260200160002060030181600019169055508473ffffffffffffffffffffffffffffffffffffffff167f36cd692caa63e05d06ec64ae3a07dffe3b224fecb32af5fa7bc1469f5bcdde57600560008873ffffffffffffffffffffffffffffffffffffffff1673ffffffffffffffffffffffffffffffffffffffff168152602001908152602001600020600001548686866040518085815260200184600019166000191681526020018360001916600019168152602001826000191660001916815260200194505050505060405180910390a260019050949350505050565b600360009054906101000a900473ffffffffffffffffffffffffffffffffffffffff1673ffffffffffffffffffffffffffffffffffffffff163373ffffffffffffffffffffffffffffffffffffffff161415156132be57600080fd5b600360009054906101000a900473ffffffffffffffffffffffffffffffffffffffff1673ffffffffffffffffffffffffffffffffffffffff166108fc3073ffffffffffffffffffffffffffffffffffffffff16319081150290604051600060405180830381858888f19350505050151561333457fe5b565b60008073ffffffffffffffffffffffffffffffffffffffff168373ffffffffffffffffffffffffffffffffffffffff161415151561337357600080fd5b6000803373ffffffffffffffffffffffffffffffffffffffff1673ffffffffffffffffffffffffffffffffffffffff1681526020019081526020016000205482111515156133c057600080fd5b613411826000803373ffffffffffffffffffffffffffffffffffffffff1673ffffffffffffffffffffffffffffffffffffffff1681526020019081526020016000205461498190919063ffffffff16565b6000803373ffffffffffffffffffffffffffffffffffffffff1673ffffffffffffffffffffffffffffffffffffffff168152602001908152602001600020819055506134a4826000808673ffffffffffffffffffffffffffffffffffffffff1673ffffffffffffffffffffffffffffffffffffffff1681526020019081526020016000205461499a90919063ffffffff16565b6000808573ffffffffffffffffffffffffffffffffffffffff1673ffffffffffffffffffffffffffffffffffffffff168152602001908152602001600020819055508273ffffffffffffffffffffffffffffffffffffffff163373ffffffffffffffffffffffffffffffffffffffff167fddf252ad1be2c89b69c2b068fc378daa952ba7f163c4a11628f55a4df523b3ef846040518082815260200191505060405180910390a36001905092915050565b6000600880549050905090565b600080fd5b60006001151561357687611b24565b151514151561358457600080fd5b6001151561359186614056565b151514151561359f57600080fd5b83600660008873ffffffffffffffffffffffffffffffffffffffff1673ffffffffffffffffffffffffffffffffffffffff16815260200190815260200160002060010160006101000a81548160ff021916908360ff16021790555082600660008873ffffffffffffffffffffffffffffffffffffffff1673ffffffffffffffffffffffffffffffffffffffff16815260200190815260200160002060010160016101000a81548160ff021916908360ff16021790555081600660008873ffffffffffffffffffffffffffffffffffffffff1673ffffffffffffffffffffffffffffffffffffffff16815260200190815260200160002060010160026101000a81548161ffff021916908361ffff1602179055508473ffffffffffffffffffffffffffffffffffffffff168673ffffffffffffffffffffffffffffffffffffffff167f14e6f8ed13bdc5b46b0fec74e94e70b199f0a484e034fb5ab0bb646db34f5f8a600660008a73ffffffffffffffffffffffffffffffffffffffff1673ffffffffffffffffffffffffffffffffffffffff16815260200190815260200160002060000154878787604051808581526020018460ff1660ff1681526020018360ff1660ff1681526020018261ffff1661ffff16815260200194505050505060405180910390a36001905095945050505050565b600061382382600260003373ffffffffffffffffffffffffffffffffffffffff1673ffffffffffffffffffffffffffffffffffffffff16815260200190815260200160002060008673ffffffffffffffffffffffffffffffffffffffff1673ffffffffffffffffffffffffffffffffffffffff1681526020019081526020016000205461499a90919063ffffffff16565b600260003373ffffffffffffffffffffffffffffffffffffffff1673ffffffffffffffffffffffffffffffffffffffff16815260200190815260200160002060008573ffffffffffffffffffffffffffffffffffffffff1673ffffffffffffffffffffffffffffffffffffffff168152602001908152602001600020819055508273ffffffffffffffffffffffffffffffffffffffff163373ffffffffffffffffffffffffffffffffffffffff167f8c5be1e5ebec7d5bd14f71427d1e84f3dd0314c0f7b2291e5b200ac8c7c3b925600260003373ffffffffffffffffffffffffffffffffffffffff1673ffffffffffffffffffffffffffffffffffffffff16815260200190815260200160002060008773ffffffffffffffffffffffffffffffffffffffff1673ffffffffffffffffffffffffffffffffffffffff168152602001908152602001600020546040518082815260200191505060405180910390a36001905092915050565b60046020528060005260406000206000915090508060000160009054906101000a900473ffffffffffffffffffffffffffffffffffffffff16908060010154905082565b6000600260008473ffffffffffffffffffffffffffffffffffffffff1673ffffffffffffffffffffffffffffffffffffffff16815260200190815260200160002060008373ffffffffffffffffffffffffffffffffffffffff1673ffffffffffffffffffffffffffffffffffffffff16815260200190815260200160002054905092915050565b6000801515613a6786613def565b1515141515613a7557600080fd5b60011515613a8286614056565b1515141515613a9057600080fd5b82600760008773ffffffffffffffffffffffffffffffffffffffff1673ffffffffffffffffffffffffffffffffffffffff16815260200190815260200160002060010160006101000a81548160ff021916908360ff16021790555081600760008773ffffffffffffffffffffffffffffffffffffffff1673ffffffffffffffffffffffffffffffffffffffff16815260200190815260200160002060010160016101000a81548161ffff021916908361ffff16021790555083600760008773ffffffffffffffffffffffffffffffffffffffff1673ffffffffffffffffffffffffffffffffffffffff16815260200190815260200160002060010160036101000a81548173ffffffffffffffffffffffffffffffffffffffff021916908373ffffffffffffffffffffffffffffffffffffffff1602179055506001600a8054806001018281613bdf91906149e4565b9160005260206000209001600088909190916101000a81548173ffffffffffffffffffffffffffffffffffffffff021916908373ffffffffffffffffffffffffffffffffffffffff16021790555003600760008773ffffffffffffffffffffffffffffffffffffffff1673ffffffffffffffffffffffffffffffffffffffff168152602001908152602001600020600001819055508373ffffffffffffffffffffffffffffffffffffffff168573ffffffffffffffffffffffffffffffffffffffff167f33e6002de33fb59e2bee761013a061b0a46de2ff5fbc0fe7c5783203ee867ab9600760008973ffffffffffffffffffffffffffffffffffffffff1673ffffffffffffffffffffffffffffffffffffffff168152602001908152602001600020600001548686604051808481526020018360ff1660ff1681526020018261ffff1661ffff168152602001935050505060405180910390a3600560008673ffffffffffffffffffffffffffffffffffffffff1673ffffffffffffffffffffffffffffffffffffffff1681526020019081526020016000206005018054806001018281613d8d91906149e4565b9160005260206000209001600087909190916101000a81548173ffffffffffffffffffffffffffffffffffffffff021916908373ffffffffffffffffffffffffffffffffffffffff160217905550506001600980549050039050949350505050565b600080600a805490501415613e075760009050613eb5565b8173ffffffffffffffffffffffffffffffffffffffff16600a600760008573ffffffffffffffffffffffffffffffffffffffff1673ffffffffffffffffffffffffffffffffffffffff16815260200190815260200160002060000154815481101515613e6f57fe5b906000526020600020900160009054906101000a900473ffffffffffffffffffffffffffffffffffffffff1673ffffffffffffffffffffffffffffffffffffffff161490505b919050565b6000600982815481101515613ecb57fe5b906000526020600020900160009054906101000a900473ffffffffffffffffffffffffffffffffffffffff169050919050565b600360009054906101000a900473ffffffffffffffffffffffffffffffffffffffff1673ffffffffffffffffffffffffffffffffffffffff163373ffffffffffffffffffffffffffffffffffffffff16141515613f5a57600080fd5b600073ffffffffffffffffffffffffffffffffffffffff168173ffffffffffffffffffffffffffffffffffffffff1614151515613f9657600080fd5b8073ffffffffffffffffffffffffffffffffffffffff16600360009054906101000a900473ffffffffffffffffffffffffffffffffffffffff1673ffffffffffffffffffffffffffffffffffffffff167f8be0079c531659141344cd1fd0a4f28419497f9722a3daafe3b4186f6b6457e060405160405180910390a380600360006101000a81548173ffffffffffffffffffffffffffffffffffffffff021916908373ffffffffffffffffffffffffffffffffffffffff16021790555050565b600080600880549050141561406e576000905061411c565b8173ffffffffffffffffffffffffffffffffffffffff166008600560008573ffffffffffffffffffffffffffffffffffffffff1673ffffffffffffffffffffffffffffffffffffffff168152602001908152602001600020600001548154811015156140d657fe5b906000526020600020900160009054906101000a900473ffffffffffffffffffffffffffffffffffffffff1673ffffffffffffffffffffffffffffffffffffffff161490505b919050565b600080151561412f86614056565b151514151561413d57600080fd5b83600560008773ffffffffffffffffffffffffffffffffffffffff1673ffffffffffffffffffffffffffffffffffffffff168152602001908152602001600020600101816000191690555082600560008773ffffffffffffffffffffffffffffffffffffffff1673ffffffffffffffffffffffffffffffffffffffff168152602001908152602001600020600201816000191690555081600560008773ffffffffffffffffffffffffffffffffffffffff1673ffffffffffffffffffffffffffffffffffffffff168152602001908152602001600020600301816000191690555060016008805480600101828161423491906149e4565b9160005260206000209001600088909190916101000a81548173ffffffffffffffffffffffffffffffffffffffff021916908373ffffffffffffffffffffffffffffffffffffffff16021790555003600560008773ffffffffffffffffffffffffffffffffffffffff1673ffffffffffffffffffffffffffffffffffffffff168152602001908152602001600020600001819055508473ffffffffffffffffffffffffffffffffffffffff167f78b833eacd29aac1183e31c8289157ed550f3b1f9f1526bf2055ef195cac287f600560008873ffffffffffffffffffffffffffffffffffffffff1673ffffffffffffffffffffffffffffffffffffffff168152602001908152602001600020600001548686866040518085815260200184600019166000191681526020018360001916600019168152602001826000191660001916815260200194505050505060405180910390a26001600880549050039050949350505050565b60008015156143aa87611b24565b15151415156143b857600080fd5b600115156143c587614056565b15151415156143d357600080fd5b83600660008873ffffffffffffffffffffffffffffffffffffffff1673ffffffffffffffffffffffffffffffffffffffff16815260200190815260200160002060010160006101000a81548160ff021916908360ff16021790555082600660008873ffffffffffffffffffffffffffffffffffffffff1673ffffffffffffffffffffffffffffffffffffffff16815260200190815260200160002060010160016101000a81548160ff021916908360ff16021790555081600660008873ffffffffffffffffffffffffffffffffffffffff1673ffffffffffffffffffffffffffffffffffffffff16815260200190815260200160002060010160026101000a81548161ffff021916908361ffff16021790555084600660008873ffffffffffffffffffffffffffffffffffffffff1673ffffffffffffffffffffffffffffffffffffffff16815260200190815260200160002060010160046101000a81548173ffffffffffffffffffffffffffffffffffffffff021916908373ffffffffffffffffffffffffffffffffffffffff16021790555060016009805480600101828161457d91906149e4565b9160005260206000209001600089909190916101000a81548173ffffffffffffffffffffffffffffffffffffffff021916908373ffffffffffffffffffffffffffffffffffffffff16021790555003600660008873ffffffffffffffffffffffffffffffffffffffff1673ffffffffffffffffffffffffffffffffffffffff168152602001908152602001600020600001819055508473ffffffffffffffffffffffffffffffffffffffff168673ffffffffffffffffffffffffffffffffffffffff167f2a4af3dcdaf87b692186cac5b607d155f4e1c99f127fdd97c6a8a257b3a063d1600660008a73ffffffffffffffffffffffffffffffffffffffff1673ffffffffffffffffffffffffffffffffffffffff16815260200190815260200160002060000154878787604051808581526020018460ff1660ff1681526020018360ff1660ff1681526020018261ffff1661ffff16815260200194505050505060405180910390a3600560008773ffffffffffffffffffffffffffffffffffffffff1673ffffffffffffffffffffffffffffffffffffffff168152602001908152602001600020600401805480600101828161473991906149e4565b9160005260206000209001600088909190916101000a81548173ffffffffffffffffffffffffffffffffffffffff021916908373ffffffffffffffffffffffffffffffffffffffff16021790555050600160098054905003905095945050505050565b600080600460008473ffffffffffffffffffffffffffffffffffffffff1673ffffffffffffffffffffffffffffffffffffffff1681526020019081526020016000209050600073ffffffffffffffffffffffffffffffffffffffff168160000160009054906101000a900473ffffffffffffffffffffffffffffffffffffffff1673ffffffffffffffffffffffffffffffffffffffff16148015614844575060008160010154145b156148525760009150614857565b600191505b50919050565b6000600a80549050905090565b600060088281548110151561487b57fe5b906000526020600020900160009054906101000a900473ffffffffffffffffffffffffffffffffffffffff169050919050565b8273ffffffffffffffffffffffffffffffffffffffff1663a9059cbb83836000604051602001526040518363ffffffff167c0100000000000000000000000000000000000000000000000000000000028152600401808373ffffffffffffffffffffffffffffffffffffffff1673ffffffffffffffffffffffffffffffffffffffff16815260200182815260200192505050602060405180830381600087803b151561495957600080fd5b6102c65a03f1151561496a57600080fd5b50505060405180519050151561497c57fe5b505050565b600082821115151561498f57fe5b818303905092915050565b60008082840190508381101515156149ae57fe5b8091505092915050565b8154818355818115116149df578183600052602060002091820191016149de9190614a10565b5b505050565b815481835581811511614a0b57818360005260206000209182019101614a0a9190614a10565b5b505050565b614a3291905b80821115614a2e576000816000905550600101614a16565b5090565b905600a165627a7a72305820bde52a8aa2a699d5e4275b7803fe2f5609f4fb7d64e26af99cd88e83065816840029",
  "source": "pragma solidity ^0.4.19;\r\n\r\nimport \"./zeppelin/MintableToken.sol\";\r\nimport \"./zeppelin/NoOwner.sol\";\r\nimport \"./zeppelin/HasNoEther.sol\";\r\nimport \"./zeppelin/HasNoContracts.sol\";\r\nimport \"./utils/ProofOfLoss.sol\";\r\n\r\n/*\r\n@TODOs:\r\n* only place/eqips owners can update/ delete\r\n* equipment transfers\r\n* can't be deleted before contract ends\r\n* ...\r\n*/\r\ncontract PowerPiperToken is MintableToken, HasNoEther, HasNoContracts, NoOwner, ProofOfLoss {\r\n    string public constant name = \"PowerPiperToken\";\r\n    string public constant symbol = \"PWP\";\r\n    uint8 public constant decimals = 3;\r\n\r\n    struct UserStruct {\r\n        uint index;\r\n        bytes32 email;\r\n        bytes32 firstName;\r\n        bytes32 lastName;\r\n        address[] placeId;\r\n        address[] equipmentId;\r\n    }\r\n\r\n    struct PlaceStruct {\r\n        uint index;\r\n        uint8 msq;\r\n        uint8 kwh;\r\n        uint16 price;\r\n        address userId;\r\n    }\r\n\r\n    struct EquipmentStruct {\r\n        uint index;\r\n        uint8 kwh;\r\n        uint16 price;\r\n        address userId;\r\n    }\r\n\r\n    event NewUser(address indexed _addr, uint _index, bytes32 _email, bytes32 _firstName, bytes32 _lastName);\r\n    event NewPlace(address indexed _addr, address indexed _userAddr, uint _index, uint8 _msq, uint8 _kwh, uint16 _price);\r\n    event NewEquipment(address indexed _addr, address indexed _userAddr, uint _index, uint8 _kwh, uint16 _price);\r\n    event UpdateUser(address indexed _addr,  uint _index, bytes32 _email, bytes32 _firstName, bytes32 _lastName);\r\n    event UpdatePlace(address indexed _addr, address indexed _userAddr, uint _index, uint8 _msq, uint8 _kwh, uint16 _price);\r\n    event UpdateEquipment(address indexed _addr, address indexed _userAddr, uint _index, uint8 _kwh, uint16 _price);\r\n    event DeleteUser(address indexed _addr,  uint _index);\r\n    event DeletePlace(address indexed _addr,  uint _index);\r\n    event DeleteEquipment(address indexed _addr,  uint _index);\r\n    \r\n    mapping(address => UserStruct) users;\r\n    mapping(address => PlaceStruct) places;\r\n    mapping(address => EquipmentStruct) equipments;\r\n    address[] private userIndex;\r\n    address[] private placeIndex;\r\n    address[] private equipmentIndex;\r\n\r\n    function existsUser(address _addr) public constant returns(bool isIndexed) {\r\n        if(userIndex.length == 0) return false;\r\n        return (userIndex[users[_addr].index] == _addr);\r\n    }\r\n\r\n    function existsPlace(address _addr) public constant returns(bool isIndexed) {\r\n        if(placeIndex.length == 0) return false;\r\n        return (placeIndex[places[_addr].index] == _addr);\r\n    }\r\n\r\n    function existsEquipment(address _addr) public constant returns(bool isIndexed) {\r\n        if(equipmentIndex.length == 0) return false;\r\n        return (equipmentIndex[equipments[_addr].index] == _addr);\r\n    }\r\n\r\n    function newtUser(address _addr, bytes32 _email, bytes32 _firstName, bytes32 _lastName) public returns(uint index) {\r\n        require(existsUser(_addr) == false);\r\n        users[_addr].email = _email;\r\n        users[_addr].firstName = _firstName;\r\n        users[_addr].lastName = _lastName;\r\n        users[_addr].index = userIndex.push(_addr) - 1;\r\n        NewUser(_addr, users[_addr].index,  _email, _firstName, _lastName);\r\n        return userIndex.length - 1;\r\n    }\r\n\r\n    function newPlace(address _addr, address _userAddr, uint8 _msq, uint8 _kwh, uint16 _price) public returns(uint index) {\r\n        require(existsPlace(_addr) == false);\r\n        require(existsUser(_addr) == true);\r\n        places[_addr].msq = _msq;\r\n        places[_addr].kwh = _kwh;\r\n        places[_addr].price = _price;\r\n        places[_addr].userId = _userAddr;\r\n        places[_addr].index = placeIndex.push(_addr) - 1;\r\n        NewPlace(_addr, _userAddr, places[_addr].index,  _msq, _kwh, _price);\r\n        users[_addr].placeId.push(_addr);\r\n        return placeIndex.length - 1;\r\n    }\r\n\r\n    function newEquipment(address _addr, address _userAddr, uint8 _kwh, uint16 _price) public returns(uint index) {\r\n        require(existsEquipment(_addr) == false);\r\n        require(existsUser(_addr) == true);\r\n        equipments[_addr].kwh = _kwh;\r\n        equipments[_addr].price = _price;\r\n        equipments[_addr].userId = _userAddr;\r\n        equipments[_addr].index = equipmentIndex.push(_addr) - 1;\r\n        NewEquipment(_addr, _userAddr, equipments[_addr].index, _kwh, _price);\r\n        users[_addr].equipmentId.push(_addr);\r\n        return placeIndex.length - 1;\r\n    }\r\n\r\n    function getUser(address _addr) public constant returns(uint index, bytes32 email, bytes32 firstName, bytes32 lastName) {\r\n        require(existsUser(_addr) == true);\r\n        return(\r\n            users[_addr].index,\r\n            users[_addr].email,\r\n            users[_addr].firstName,\r\n            users[_addr].lastName\r\n        );\r\n    }\r\n\r\n    function getPlace(address _addr) public constant returns(uint index, uint8 msq, uint8 kwh, uint16 price) {\r\n        require(existsPlace(_addr) == true);\r\n        return(\r\n            places[_addr].index,\r\n            places[_addr].msq,\r\n            places[_addr].kwh,\r\n            places[_addr].price\r\n        );\r\n    }\r\n\r\n    function getEquipment(address _addr) public constant returns(uint index, uint8 kwh, uint16 price) {\r\n        require(existsEquipment(_addr) == true);\r\n        return(\r\n            places[_addr].index,\r\n            places[_addr].kwh,\r\n            places[_addr].price\r\n        );\r\n    }\r\n\r\n    function updateUser(address _addr, bytes32 _email, bytes32 _firstName, bytes32 _lastName) public returns(bool) {\r\n        require(existsUser(_addr) == true);\r\n        users[_addr].email = _email;\r\n        users[_addr].firstName = _firstName;\r\n        users[_addr].lastName = _lastName;\r\n        UpdateUser(_addr, users[_addr].index, _email, _firstName, _lastName);\r\n        return true;\r\n    }\r\n\r\n    function updatePlace(address _addr, address _userAddr, uint8 _msq, uint8 _kwh, uint16 _price) public returns(bool) {\r\n        require(existsPlace(_addr) == true);\r\n        require(existsUser(_userAddr) == true);\r\n        places[_addr].msq = _msq;\r\n        places[_addr].kwh = _kwh;\r\n        places[_addr].price = _price;\r\n        UpdatePlace(_addr, _userAddr, places[_addr].index, _msq, _kwh, _price);\r\n        return true;\r\n    }\r\n\r\n    function updateEquipment(address _addr, address _userAddr, uint8 _kwh, uint16 _price) public returns(bool) {\r\n        require(existsEquipment(_addr) == true);\r\n        require(existsUser(_userAddr) == true);\r\n        equipments[_addr].kwh = _kwh;\r\n        equipments[_addr].price = _price;\r\n        UpdateEquipment(_addr, _userAddr, equipments[_addr].index, _kwh, _price);\r\n        return true;\r\n    }\r\n\r\n    function deleteUser(address _addr) public returns(uint index) {\r\n        require(existsUser(_addr) == true);\r\n        uint _rowToDelete = users[_addr].index;\r\n        address _keyToMove = userIndex[userIndex.length - 1];\r\n        userIndex[_rowToDelete] = _keyToMove;\r\n        users[_keyToMove].index = _rowToDelete; \r\n        userIndex.length--;\r\n        DeleteUser(_addr, _rowToDelete);\r\n        UpdateUser(_keyToMove, _rowToDelete, users[_keyToMove].email, users[_keyToMove].firstName, users[_keyToMove].lastName);\r\n        return _rowToDelete;\r\n    }\r\n\r\n    function deletePlace(address _addr) public returns(uint index) {\r\n        require(existsPlace(_addr) == true);\r\n        uint _rowToDelete = places[_addr].index;\r\n        address _keyToMove = placeIndex[placeIndex.length - 1];\r\n        placeIndex[_rowToDelete] = _keyToMove;\r\n        places[_keyToMove].index = _rowToDelete; \r\n        placeIndex.length--;\r\n        DeletePlace(_addr, _rowToDelete);\r\n        UpdatePlace(_keyToMove, places[_keyToMove].userId, _rowToDelete, places[_keyToMove].msq, places[_keyToMove].kwh, places[_keyToMove].price);\r\n        return _rowToDelete;\r\n    }\r\n\r\n    function deleteEquipment(address _addr) public returns(uint index) {\r\n        require(existsEquipment(_addr) == true);\r\n        uint _rowToDelete = equipments[_addr].index;\r\n        address _keyToMove = equipmentIndex[equipmentIndex.length - 1];\r\n        equipmentIndex[_rowToDelete] = _keyToMove;\r\n        equipments[_keyToMove].index = _rowToDelete; \r\n        equipmentIndex.length--;\r\n        DeleteEquipment(_addr, _rowToDelete);\r\n        UpdateEquipment(_keyToMove, equipments[_keyToMove].userId, _rowToDelete, equipments[_keyToMove].kwh, equipments[_keyToMove].price);\r\n        return _rowToDelete;\r\n    }\r\n\r\n    function getUserCount() public constant returns(uint count) {\r\n        return userIndex.length;\r\n    }\r\n\r\n    function getPlaceCount() public constant returns(uint count) {\r\n        return placeIndex.length;\r\n    }\r\n\r\n    function getEquipmentCount() public constant returns(uint count) {\r\n        return equipmentIndex.length;\r\n    }\r\n\r\n    function getUserAtIndex(uint index) public  constant returns(address _addr) {\r\n        return userIndex[index];\r\n    }\r\n\r\n    function getPlaceAtIndex(uint index) public  constant returns(address _addr) {\r\n        return placeIndex[index];\r\n    }\r\n\r\n    function getEquipmentAtIndex(uint index) public  constant returns(address _addr) {\r\n        return equipmentIndex[index];\r\n    }\r\n\r\n}\r\n",
  "sourcePath": "C:\\Users\\DXenu\\Desktop\\box\\demo_contract\\contracts\\PowerPiperToken.sol",
  "compiler": {
    "name": "solc",
    "version": "0.4.19+commit.c4cbbb05.Emscripten.clang"
  },
  "schemaVersion": "2.0.0",
  "updatedAt": "2018-03-28T13:45:41.390Z"
}