{
  "contractName": "PowerPiperCrowdsale",
  "abi": [
    {
      "constant": true,
      "inputs": [],
      "name": "hasClosed",
      "outputs": [
        {
          "name": "",
          "type": "bool"
        }
      ],
      "payable": false,
      "stateMutability": "view",
      "type": "function"
    },
    {
      "constant": true,
      "inputs": [],
      "name": "rate",
      "outputs": [
        {
          "name": "",
          "type": "uint256"
        }
      ],
      "payable": false,
      "stateMutability": "view",
      "type": "function"
    },
    {
      "constant": true,
      "inputs": [],
      "name": "cap",
      "outputs": [
        {
          "name": "",
          "type": "uint256"
        }
      ],
      "payable": false,
      "stateMutability": "view",
      "type": "function"
    },
    {
      "constant": true,
      "inputs": [],
      "name": "goal",
      "outputs": [
        {
          "name": "",
          "type": "uint256"
        }
      ],
      "payable": false,
      "stateMutability": "view",
      "type": "function"
    },
    {
      "constant": true,
      "inputs": [],
      "name": "weiRaised",
      "outputs": [
        {
          "name": "",
          "type": "uint256"
        }
      ],
      "payable": false,
      "stateMutability": "view",
      "type": "function"
    },
    {
      "constant": true,
      "inputs": [],
      "name": "closingTime",
      "outputs": [
        {
          "name": "",
          "type": "uint256"
        }
      ],
      "payable": false,
      "stateMutability": "view",
      "type": "function"
    },
    {
      "constant": false,
      "inputs": [],
      "name": "finalize",
      "outputs": [],
      "payable": false,
      "stateMutability": "nonpayable",
      "type": "function"
    },
    {
      "constant": true,
      "inputs": [],
      "name": "capReached",
      "outputs": [
        {
          "name": "",
          "type": "bool"
        }
      ],
      "payable": false,
      "stateMutability": "view",
      "type": "function"
    },
    {
      "constant": true,
      "inputs": [],
      "name": "wallet",
      "outputs": [
        {
          "name": "",
          "type": "address"
        }
      ],
      "payable": false,
      "stateMutability": "view",
      "type": "function"
    },
    {
      "constant": true,
      "inputs": [],
      "name": "goalReached",
      "outputs": [
        {
          "name": "",
          "type": "bool"
        }
      ],
      "payable": false,
      "stateMutability": "view",
      "type": "function"
    },
    {
      "constant": true,
      "inputs": [],
      "name": "isFinalized",
      "outputs": [
        {
          "name": "",
          "type": "bool"
        }
      ],
      "payable": false,
      "stateMutability": "view",
      "type": "function"
    },
    {
      "constant": true,
      "inputs": [],
      "name": "owner",
      "outputs": [
        {
          "name": "",
          "type": "address"
        }
      ],
      "payable": false,
      "stateMutability": "view",
      "type": "function"
    },
    {
      "constant": false,
      "inputs": [],
      "name": "claimRefund",
      "outputs": [],
      "payable": false,
      "stateMutability": "nonpayable",
      "type": "function"
    },
    {
      "constant": true,
      "inputs": [],
      "name": "openingTime",
      "outputs": [
        {
          "name": "",
          "type": "uint256"
        }
      ],
      "payable": false,
      "stateMutability": "view",
      "type": "function"
    },
    {
      "constant": true,
      "inputs": [],
      "name": "fee",
      "outputs": [
        {
          "name": "",
          "type": "uint256"
        }
      ],
      "payable": false,
      "stateMutability": "view",
      "type": "function"
    },
    {
      "constant": false,
      "inputs": [
        {
          "name": "_beneficiary",
          "type": "address"
        }
      ],
      "name": "buyTokens",
      "outputs": [],
      "payable": true,
      "stateMutability": "payable",
      "type": "function"
    },
    {
      "constant": false,
      "inputs": [
        {
          "name": "newOwner",
          "type": "address"
        }
      ],
      "name": "transferOwnership",
      "outputs": [],
      "payable": false,
      "stateMutability": "nonpayable",
      "type": "function"
    },
    {
      "constant": true,
      "inputs": [],
      "name": "vault",
      "outputs": [
        {
          "name": "",
          "type": "address"
        }
      ],
      "payable": false,
      "stateMutability": "view",
      "type": "function"
    },
    {
      "constant": true,
      "inputs": [],
      "name": "token",
      "outputs": [
        {
          "name": "",
          "type": "address"
        }
      ],
      "payable": false,
      "stateMutability": "view",
      "type": "function"
    },
    {
      "inputs": [
        {
          "name": "_startTime",
          "type": "uint256"
        },
        {
          "name": "_endTime",
          "type": "uint256"
        },
        {
          "name": "_rate",
          "type": "uint256"
        },
        {
          "name": "_cap",
          "type": "uint256"
        },
        {
          "name": "_wallet",
          "type": "address"
        },
        {
          "name": "_token",
          "type": "address"
        },
        {
          "name": "_goal",
          "type": "uint256"
        }
      ],
      "payable": false,
      "stateMutability": "nonpayable",
      "type": "constructor"
    },
    {
      "payable": true,
      "stateMutability": "payable",
      "type": "fallback"
    },
    {
      "anonymous": false,
      "inputs": [
        {
          "indexed": false,
          "name": "_buyer",
          "type": "address"
        },
        {
          "indexed": false,
          "name": "_amount",
          "type": "uint256"
        },
        {
          "indexed": false,
          "name": "_timestamp",
          "type": "uint256"
        }
      ],
      "name": "BuyDirectEvent",
      "type": "event"
    },
    {
      "anonymous": false,
      "inputs": [
        {
          "indexed": false,
          "name": "_redeember",
          "type": "address"
        },
        {
          "indexed": false,
          "name": "_amount",
          "type": "uint256"
        },
        {
          "indexed": false,
          "name": "_timestamp",
          "type": "uint256"
        }
      ],
      "name": "RedeemEvent",
      "type": "event"
    },
    {
      "anonymous": false,
      "inputs": [],
      "name": "Finalized",
      "type": "event"
    },
    {
      "anonymous": false,
      "inputs": [
        {
          "indexed": true,
          "name": "previousOwner",
          "type": "address"
        },
        {
          "indexed": true,
          "name": "newOwner",
          "type": "address"
        }
      ],
      "name": "OwnershipTransferred",
      "type": "event"
    },
    {
      "anonymous": false,
      "inputs": [
        {
          "indexed": true,
          "name": "purchaser",
          "type": "address"
        },
        {
          "indexed": true,
          "name": "beneficiary",
          "type": "address"
        },
        {
          "indexed": false,
          "name": "value",
          "type": "uint256"
        },
        {
          "indexed": false,
          "name": "amount",
          "type": "uint256"
        }
      ],
      "name": "TokenPurchase",
      "type": "event"
    },
    {
      "constant": false,
      "inputs": [
        {
          "name": "_url",
          "type": "bytes32"
        },
        {
          "name": "_amount",
          "type": "uint256"
        }
      ],
      "name": "addCertificate",
      "outputs": [],
      "payable": false,
      "stateMutability": "nonpayable",
      "type": "function"
    },
    {
      "constant": true,
      "inputs": [],
      "name": "getCertificatesLength",
      "outputs": [
        {
          "name": "",
          "type": "uint256"
        }
      ],
      "payable": false,
      "stateMutability": "view",
      "type": "function"
    },
    {
      "constant": true,
      "inputs": [],
      "name": "getReserves",
      "outputs": [
        {
          "name": "",
          "type": "uint256"
        }
      ],
      "payable": false,
      "stateMutability": "view",
      "type": "function"
    },
    {
      "constant": true,
      "inputs": [],
      "name": "getEnergyPriceMarkup",
      "outputs": [
        {
          "name": "",
          "type": "uint256"
        }
      ],
      "payable": false,
      "stateMutability": "view",
      "type": "function"
    },
    {
      "constant": true,
      "inputs": [
        {
          "name": "_amount",
          "type": "uint256"
        }
      ],
      "name": "calculateFee",
      "outputs": [
        {
          "name": "",
          "type": "uint256"
        }
      ],
      "payable": false,
      "stateMutability": "view",
      "type": "function"
    },
    {
      "constant": true,
      "inputs": [
        {
          "name": "_index",
          "type": "uint256"
        }
      ],
      "name": "getCertificate",
      "outputs": [
        {
          "name": "",
          "type": "bytes32"
        },
        {
          "name": "",
          "type": "uint256"
        },
        {
          "name": "",
          "type": "uint256"
        }
      ],
      "payable": false,
      "stateMutability": "view",
      "type": "function"
    },
    {
      "constant": false,
      "inputs": [],
      "name": "buyDirect",
      "outputs": [],
      "payable": true,
      "stateMutability": "payable",
      "type": "function"
    },
    {
      "constant": false,
      "inputs": [
        {
          "name": "_value",
          "type": "uint256"
        },
        {
          "name": "_location",
          "type": "string"
        }
      ],
      "name": "redeem",
      "outputs": [
        {
          "name": "",
          "type": "uint256"
        }
      ],
      "payable": false,
      "stateMutability": "nonpayable",
      "type": "function"
    },
    {
      "constant": true,
      "inputs": [],
      "name": "tokensSupplyAvailable",
      "outputs": [
        {
          "name": "",
          "type": "int256"
        }
      ],
      "payable": false,
      "stateMutability": "view",
      "type": "function"
    },
    {
      "constant": false,
      "inputs": [
        {
          "name": "_fee",
          "type": "uint256"
        }
      ],
      "name": "setNewFee",
      "outputs": [],
      "payable": false,
      "stateMutability": "nonpayable",
      "type": "function"
    },
    {
      "constant": true,
      "inputs": [],
      "name": "hasEnded",
      "outputs": [
        {
          "name": "",
          "type": "bool"
        }
      ],
      "payable": false,
      "stateMutability": "view",
      "type": "function"
    }
  ],
  "bytecode": "0x60606040526000600760146101000a81548160ff0219169083151502179055506000600e556000600f556000601055600060115534156200003f57600080fd5b60405160e08062002b528339810160405280805190602001909190805190602001909190805190602001909190805190602001909190805190602001909190805190602001909190805190602001909190505080878786888787600083111515620000a957600080fd5b600073ffffffffffffffffffffffffffffffffffffffff168273ffffffffffffffffffffffffffffffffffffffff1614151515620000e657600080fd5b600073ffffffffffffffffffffffffffffffffffffffff168173ffffffffffffffffffffffffffffffffffffffff16141515156200012357600080fd5b8260028190555081600160006101000a81548173ffffffffffffffffffffffffffffffffffffffff021916908373ffffffffffffffffffffffffffffffffffffffff160217905550806000806101000a81548173ffffffffffffffffffffffffffffffffffffffff021916908373ffffffffffffffffffffffffffffffffffffffff160217905550505050600081111515620001be57600080fd5b8060048190555050428210151515620001d657600080fd5b818110151515620001e657600080fd5b8160058190555080600681905550505033600760006101000a81548173ffffffffffffffffffffffffffffffffffffffff021916908373ffffffffffffffffffffffffffffffffffffffff1602179055506000811115156200024757600080fd5b600160009054906101000a900473ffffffffffffffffffffffffffffffffffffffff166200027462000337565b808273ffffffffffffffffffffffffffffffffffffffff1673ffffffffffffffffffffffffffffffffffffffff168152602001915050604051809103906000f0801515620002c157600080fd5b600960006101000a81548173ffffffffffffffffffffffffffffffffffffffff021916908373ffffffffffffffffffffffffffffffffffffffff16021790555080600881905550508381111515156200031957600080fd5b6064600e819055506103e86011819055505050505050505062000348565b604051610a7780620020db83390190565b611d8380620003586000396000f300606060405260043610610180576000357c0100000000000000000000000000000000000000000000000000000000900463ffffffff1680630902f1ac1461018b5780631515bc2b146101b457806324b76fd5146101e15780632aa070b91461025b5780632c4e722e14610284578063355274ea146102ad57806340193883146102d65780634042b66f146102ff57806347c9e35614610328578063483e0bd9146103585780634b6753bc146103625780634bb278f31461038b5780634f935945146103a057806351640fee146103cd578063521eb2731461041a5780637d3d65221461046f5780637f5d695a1461049c5780638d4e4083146104c55780638da5cb5b146104f257806399a5d74714610547578063b5545a3c1461057e578063b7a8807c14610593578063c503b4da146105bc578063ddca3f43146105e5578063ec8ac4d81461060e578063ecb70fb71461063c578063f2fde38b14610669578063f4ef90be146106a2578063fbfa77cf146106c5578063fc0c546a1461071a575b6101893361076f565b005b341561019657600080fd5b61019e61083d565b6040518082815260200191505060405180910390f35b34156101bf57600080fd5b6101c7610847565b604051808215151515815260200191505060405180910390f35b34156101ec57600080fd5b610245600480803590602001909190803590602001908201803590602001908080601f01602080910402602001604051908101604052809392919081815260200183838082843782019150505050505091905050610853565b6040518082815260200191505060405180910390f35b341561026657600080fd5b61026e610cb6565b6040518082815260200191505060405180910390f35b341561028f57600080fd5b610297610d6a565b6040518082815260200191505060405180910390f35b34156102b857600080fd5b6102c0610d70565b6040518082815260200191505060405180910390f35b34156102e157600080fd5b6102e9610d76565b6040518082815260200191505060405180910390f35b341561030a57600080fd5b610312610d7c565b6040518082815260200191505060405180910390f35b341561033357600080fd5b610356600480803560001916906020019091908035906020019091905050610d82565b005b610360610e7d565b005b341561036d57600080fd5b610375610fd2565b6040518082815260200191505060405180910390f35b341561039657600080fd5b61039e610fd8565b005b34156103ab57600080fd5b6103b36110b4565b604051808215151515815260200191505060405180910390f35b34156103d857600080fd5b6103ee60048080359060200190919050506110c3565b604051808460001916600019168152602001838152602001828152602001935050505060405180910390f35b341561042557600080fd5b61042d61119a565b604051808273ffffffffffffffffffffffffffffffffffffffff1673ffffffffffffffffffffffffffffffffffffffff16815260200191505060405180910390f35b341561047a57600080fd5b6104826111c0565b604051808215151515815260200191505060405180910390f35b34156104a757600080fd5b6104af6111cf565b6040518082815260200191505060405180910390f35b34156104d057600080fd5b6104d86111d9565b604051808215151515815260200191505060405180910390f35b34156104fd57600080fd5b6105056111ec565b604051808273ffffffffffffffffffffffffffffffffffffffff1673ffffffffffffffffffffffffffffffffffffffff16815260200191505060405180910390f35b341561055257600080fd5b6105686004808035906020019091905050611212565b6040518082815260200191505060405180910390f35b341561058957600080fd5b610591611245565b005b341561059e57600080fd5b6105a6611346565b6040518082815260200191505060405180910390f35b34156105c757600080fd5b6105cf61134c565b6040518082815260200191505060405180910390f35b34156105f057600080fd5b6105f86113b5565b6040518082815260200191505060405180910390f35b61063a600480803573ffffffffffffffffffffffffffffffffffffffff1690602001909190505061076f565b005b341561064757600080fd5b61064f6113bb565b604051808215151515815260200191505060405180910390f35b341561067457600080fd5b6106a0600480803573ffffffffffffffffffffffffffffffffffffffff169060200190919050506113ca565b005b34156106ad57600080fd5b6106c36004808035906020019091905050611522565b005b34156106d057600080fd5b6106d8611588565b604051808273ffffffffffffffffffffffffffffffffffffffff1673ffffffffffffffffffffffffffffffffffffffff16815260200191505060405180910390f35b341561072557600080fd5b61072d6115ae565b604051808273ffffffffffffffffffffffffffffffffffffffff1673ffffffffffffffffffffffffffffffffffffffff16815260200191505060405180910390f35b60008034915061077f83836115d4565b61078882611601565b905061079f8260035461161f90919063ffffffff16565b6003819055506107af838261163d565b8273ffffffffffffffffffffffffffffffffffffffff163373ffffffffffffffffffffffffffffffffffffffff167f623b3804fa71d67900d064613da8f94b9617215ee90799290593e1745087ad188484604051808381526020018281526020019250505060405180910390a3610826838361164b565b61082e61164f565b6108388383611722565b505050565b6000600f54905090565b60006006544211905090565b600061085d611a2b565b83600a60009054906101000a900473ffffffffffffffffffffffffffffffffffffffff1673ffffffffffffffffffffffffffffffffffffffff166370a08231336000604051602001526040518263ffffffff167c0100000000000000000000000000000000000000000000000000000000028152600401808273ffffffffffffffffffffffffffffffffffffffff1673ffffffffffffffffffffffffffffffffffffffff168152602001915050602060405180830381600087803b151561092357600080fd5b6102c65a03f1151561093457600080fd5b505050604051805190501015151561094b57600080fd5b600a60009054906101000a900473ffffffffffffffffffffffffffffffffffffffff1673ffffffffffffffffffffffffffffffffffffffff1663095ea7b333866000604051602001526040518363ffffffff167c0100000000000000000000000000000000000000000000000000000000028152600401808373ffffffffffffffffffffffffffffffffffffffff1673ffffffffffffffffffffffffffffffffffffffff16815260200182815260200192505050602060405180830381600087803b1515610a1857600080fd5b6102c65a03f11515610a2957600080fd5b5050506040518051905050600a60009054906101000a900473ffffffffffffffffffffffffffffffffffffffff1673ffffffffffffffffffffffffffffffffffffffff166323b872dd3330876000604051602001526040518463ffffffff167c0100000000000000000000000000000000000000000000000000000000028152600401808473ffffffffffffffffffffffffffffffffffffffff1673ffffffffffffffffffffffffffffffffffffffff1681526020018373ffffffffffffffffffffffffffffffffffffffff1673ffffffffffffffffffffffffffffffffffffffff1681526020018281526020019350505050602060405180830381600087803b1515610b3557600080fd5b6102c65a03f11515610b4657600080fd5b50505060405180519050506080604051908101604052803373ffffffffffffffffffffffffffffffffffffffff168152602001848152602001858152602001428152509050600c8054806001018281610b9f9190611a70565b9160005260206000209060040201600083909190915060008201518160000160006101000a81548173ffffffffffffffffffffffffffffffffffffffff021916908373ffffffffffffffffffffffffffffffffffffffff1602179055506020820151816001019080519060200190610c18929190611aa2565b5060408201518160020155606082015181600301555050507f0e46a0c191564864bd7a70f14ef566cba8f8494211c829a52275f65d5b7d4ce2816000015182604001518360600151604051808473ffffffffffffffffffffffffffffffffffffffff1673ffffffffffffffffffffffffffffffffffffffff168152602001838152602001828152602001935050505060405180910390a15092915050565b6000600a60009054906101000a900473ffffffffffffffffffffffffffffffffffffffff1673ffffffffffffffffffffffffffffffffffffffff166318160ddd6000604051602001526040518163ffffffff167c0100000000000000000000000000000000000000000000000000000000028152600401602060405180830381600087803b1515610d4657600080fd5b6102c65a03f11515610d5757600080fd5b5050506040518051905060105403905090565b60025481565b60045481565b60085481565b60035481565b610d8a611b22565b600760009054906101000a900473ffffffffffffffffffffffffffffffffffffffff1673ffffffffffffffffffffffffffffffffffffffff163373ffffffffffffffffffffffffffffffffffffffff16141515610de657600080fd5b60606040519081016040528084600019168152602001838152602001428152509050610e218160200151600f5461161f90919063ffffffff16565b600f81905550600d8054806001018281610e3b9190611b47565b91600052602060002090600302016000839091909150600082015181600001906000191690556020820151816001015560408201518160020155505050505050565b610e85611b79565b600034111515610e9457600080fd5b6060604051908101604052803373ffffffffffffffffffffffffffffffffffffffff168152602001348152602001428152509050600b8054806001018281610edc9190611bb1565b9160005260206000209060030201600083909190915060008201518160000160006101000a81548173ffffffffffffffffffffffffffffffffffffffff021916908373ffffffffffffffffffffffffffffffffffffffff16021790555060208201518160010155604082015181600201555050507f2c33c574213feb1047a6378e9beca724f8bda16b6624875a6dee2edb3edfcdb6816000015182602001518360400151604051808473ffffffffffffffffffffffffffffffffffffffff1673ffffffffffffffffffffffffffffffffffffffff168152602001838152602001828152602001935050505060405180910390a150565b60065481565b600760009054906101000a900473ffffffffffffffffffffffffffffffffffffffff1673ffffffffffffffffffffffffffffffffffffffff163373ffffffffffffffffffffffffffffffffffffffff1614151561103457600080fd5b600760149054906101000a900460ff1615151561105057600080fd5b611058610847565b151561106357600080fd5b61106b611726565b7f6823b073d48d6e3a7d385eeb601452d680e74bb46afe3255a7d778f3a9b1768160405160405180910390a16001600760146101000a81548160ff021916908315150217905550565b60006004546003541015905090565b60008060006110d0611b22565b600760009054906101000a900473ffffffffffffffffffffffffffffffffffffffff1673ffffffffffffffffffffffffffffffffffffffff163373ffffffffffffffffffffffffffffffffffffffff1614151561112c57600080fd5b600d8581548110151561113b57fe5b906000526020600020906003020160606040519081016040529081600082015460001916600019168152602001600182015481526020016002820154815250509050806000015181602001518260400151935093509350509193909250565b600160009054906101000a900473ffffffffffffffffffffffffffffffffffffffff1681565b60006008546003541015905090565b6000601154905090565b600760149054906101000a900460ff1681565b600760009054906101000a900473ffffffffffffffffffffffffffffffffffffffff1681565b6000806103e8600e54840281151561122657fe5b049050600081141561123b576001915061123f565b8091505b50919050565b600760149054906101000a900460ff16151561126057600080fd5b6112686111c0565b15151561127457600080fd5b600960009054906101000a900473ffffffffffffffffffffffffffffffffffffffff1673ffffffffffffffffffffffffffffffffffffffff1663fa89401a336040518263ffffffff167c0100000000000000000000000000000000000000000000000000000000028152600401808273ffffffffffffffffffffffffffffffffffffffff1673ffffffffffffffffffffffffffffffffffffffff168152602001915050600060405180830381600087803b151561133057600080fd5b6102c65a03f1151561134157600080fd5b505050565b60055481565b6000600760009054906101000a900473ffffffffffffffffffffffffffffffffffffffff1673ffffffffffffffffffffffffffffffffffffffff163373ffffffffffffffffffffffffffffffffffffffff161415156113aa57600080fd5b600d80549050905090565b600e5481565b60006113c5610847565b905090565b600760009054906101000a900473ffffffffffffffffffffffffffffffffffffffff1673ffffffffffffffffffffffffffffffffffffffff163373ffffffffffffffffffffffffffffffffffffffff1614151561142657600080fd5b600073ffffffffffffffffffffffffffffffffffffffff168173ffffffffffffffffffffffffffffffffffffffff161415151561146257600080fd5b8073ffffffffffffffffffffffffffffffffffffffff16600760009054906101000a900473ffffffffffffffffffffffffffffffffffffffff1673ffffffffffffffffffffffffffffffffffffffff167f8be0079c531659141344cd1fd0a4f28419497f9722a3daafe3b4186f6b6457e060405160405180910390a380600760006101000a81548173ffffffffffffffffffffffffffffffffffffffff021916908373ffffffffffffffffffffffffffffffffffffffff16021790555050565b600760009054906101000a900473ffffffffffffffffffffffffffffffffffffffff1673ffffffffffffffffffffffffffffffffffffffff163373ffffffffffffffffffffffffffffffffffffffff1614151561157e57600080fd5b80600e8190555050565b600960009054906101000a900473ffffffffffffffffffffffffffffffffffffffff1681565b600a60009054906101000a900473ffffffffffffffffffffffffffffffffffffffff1681565b60055442101580156115e857506006544211155b15156115f357600080fd5b6115fd8282611875565b5050565b6000611618600254836118a890919063ffffffff16565b9050919050565b600080828401905083811015151561163357fe5b8091505092915050565b61164782826118e3565b5050565b5050565b600960009054906101000a900473ffffffffffffffffffffffffffffffffffffffff1673ffffffffffffffffffffffffffffffffffffffff1663f340fa0134336040518363ffffffff167c0100000000000000000000000000000000000000000000000000000000028152600401808273ffffffffffffffffffffffffffffffffffffffff1673ffffffffffffffffffffffffffffffffffffffff1681526020019150506000604051808303818588803b151561170b57600080fd5b6125ee5a03f1151561171c57600080fd5b50505050565b5050565b61172e6111c0565b156117d157600960009054906101000a900473ffffffffffffffffffffffffffffffffffffffff1673ffffffffffffffffffffffffffffffffffffffff166343d726d66040518163ffffffff167c0100000000000000000000000000000000000000000000000000000000028152600401600060405180830381600087803b15156117b857600080fd5b6102c65a03f115156117c957600080fd5b50505061186b565b600960009054906101000a900473ffffffffffffffffffffffffffffffffffffffff1673ffffffffffffffffffffffffffffffffffffffff16638c52dc416040518163ffffffff167c0100000000000000000000000000000000000000000000000000000000028152600401600060405180830381600087803b151561185657600080fd5b6102c65a03f1151561186757600080fd5b5050505b6118736119d9565b565b61187f82826119db565b6004546118978260035461161f90919063ffffffff16565b111515156118a457600080fd5b5050565b60008060008414156118bd57600091506118dc565b82840290508284828115156118ce57fe5b041415156118d857fe5b8091505b5092915050565b6000809054906101000a900473ffffffffffffffffffffffffffffffffffffffff1673ffffffffffffffffffffffffffffffffffffffff166340c10f1983836000604051602001526040518363ffffffff167c0100000000000000000000000000000000000000000000000000000000028152600401808373ffffffffffffffffffffffffffffffffffffffff1673ffffffffffffffffffffffffffffffffffffffff16815260200182815260200192505050602060405180830381600087803b15156119af57600080fd5b6102c65a03f115156119c057600080fd5b5050506040518051905015156119d557600080fd5b5050565b565b600073ffffffffffffffffffffffffffffffffffffffff168273ffffffffffffffffffffffffffffffffffffffff1614151515611a1757600080fd5b60008114151515611a2757600080fd5b5050565b608060405190810160405280600073ffffffffffffffffffffffffffffffffffffffff168152602001611a5c611be3565b815260200160008152602001600081525090565b815481835581811511611a9d57600402816004028360005260206000209182019101611a9c9190611bf7565b5b505050565b828054600181600116156101000203166002900490600052602060002090601f016020900481019282601f10611ae357805160ff1916838001178555611b11565b82800160010185558215611b11579182015b82811115611b10578251825591602001919060010190611af5565b5b509050611b1e9190611c5d565b5090565b6060604051908101604052806000801916815260200160008152602001600081525090565b815481835581811511611b7457600302816003028360005260206000209182019101611b739190611c82565b5b505050565b606060405190810160405280600073ffffffffffffffffffffffffffffffffffffffff16815260200160008152602001600081525090565b815481835581811511611bde57600302816003028360005260206000209182019101611bdd9190611cb9565b5b505050565b602060405190810160405280600081525090565b611c5a91905b80821115611c5657600080820160006101000a81549073ffffffffffffffffffffffffffffffffffffffff0219169055600182016000611c3d9190611d0f565b6002820160009055600382016000905550600401611bfd565b5090565b90565b611c7f91905b80821115611c7b576000816000905550600101611c63565b5090565b90565b611cb691905b80821115611cb2576000808201600090556001820160009055600282016000905550600301611c88565b5090565b90565b611d0c91905b80821115611d0857600080820160006101000a81549073ffffffffffffffffffffffffffffffffffffffff02191690556001820160009055600282016000905550600301611cbf565b5090565b90565b50805460018160011615610100020316600290046000825580601f10611d355750611d54565b601f016020900490600052602060002090810190611d539190611c5d565b5b505600a165627a7a7230582078f19deacbfd6d36c5e1659cf3754299676636f13428c01c3beb11e43473fe6b00296060604052341561000f57600080fd5b604051602080610a7783398101604052808051906020019091905050336000806101000a81548173ffffffffffffffffffffffffffffffffffffffff021916908373ffffffffffffffffffffffffffffffffffffffff160217905550600073ffffffffffffffffffffffffffffffffffffffff168173ffffffffffffffffffffffffffffffffffffffff16141515156100a757600080fd5b80600260006101000a81548173ffffffffffffffffffffffffffffffffffffffff021916908373ffffffffffffffffffffffffffffffffffffffff1602179055506000600260146101000a81548160ff0219169083600281111561010757fe5b02179055505061095b8061011c6000396000f300606060405260043610610099576000357c0100000000000000000000000000000000000000000000000000000000900463ffffffff16806343d726d61461009e578063521eb273146100b35780638c52dc41146101085780638da5cb5b1461011d578063c19d93fb14610172578063cb13cddb146101a9578063f2fde38b146101f6578063f340fa011461022f578063fa89401a1461025d575b600080fd5b34156100a957600080fd5b6100b1610296565b005b34156100be57600080fd5b6100c66103ef565b604051808273ffffffffffffffffffffffffffffffffffffffff1673ffffffffffffffffffffffffffffffffffffffff16815260200191505060405180910390f35b341561011357600080fd5b61011b610415565b005b341561012857600080fd5b6101306104f6565b604051808273ffffffffffffffffffffffffffffffffffffffff1673ffffffffffffffffffffffffffffffffffffffff16815260200191505060405180910390f35b341561017d57600080fd5b61018561051b565b6040518082600281111561019557fe5b60ff16815260200191505060405180910390f35b34156101b457600080fd5b6101e0600480803573ffffffffffffffffffffffffffffffffffffffff1690602001909190505061052e565b6040518082815260200191505060405180910390f35b341561020157600080fd5b61022d600480803573ffffffffffffffffffffffffffffffffffffffff16906020019091905050610546565b005b61025b600480803573ffffffffffffffffffffffffffffffffffffffff1690602001909190505061069b565b005b341561026857600080fd5b610294600480803573ffffffffffffffffffffffffffffffffffffffff169060200190919050506107c2565b005b6000809054906101000a900473ffffffffffffffffffffffffffffffffffffffff1673ffffffffffffffffffffffffffffffffffffffff163373ffffffffffffffffffffffffffffffffffffffff161415156102f157600080fd5b600060028111156102fe57fe5b600260149054906101000a900460ff16600281111561031957fe5b14151561032557600080fd5b60028060146101000a81548160ff0219169083600281111561034357fe5b02179055507f1cdde67b72a90f19919ac732a437ac2f7a10fc128d28c2a6e525d89ce5cd9d3a60405160405180910390a1600260009054906101000a900473ffffffffffffffffffffffffffffffffffffffff1673ffffffffffffffffffffffffffffffffffffffff166108fc3073ffffffffffffffffffffffffffffffffffffffff16319081150290604051600060405180830381858888f1935050505015156103ed57600080fd5b565b600260009054906101000a900473ffffffffffffffffffffffffffffffffffffffff1681565b6000809054906101000a900473ffffffffffffffffffffffffffffffffffffffff1673ffffffffffffffffffffffffffffffffffffffff163373ffffffffffffffffffffffffffffffffffffffff1614151561047057600080fd5b6000600281111561047d57fe5b600260149054906101000a900460ff16600281111561049857fe5b1415156104a457600080fd5b6001600260146101000a81548160ff021916908360028111156104c357fe5b02179055507f599d8e5a83cffb867d051598c4d70e805d59802d8081c1c7d6dffc5b6aca2b8960405160405180910390a1565b6000809054906101000a900473ffffffffffffffffffffffffffffffffffffffff1681565b600260149054906101000a900460ff1681565b60016020528060005260406000206000915090505481565b6000809054906101000a900473ffffffffffffffffffffffffffffffffffffffff1673ffffffffffffffffffffffffffffffffffffffff163373ffffffffffffffffffffffffffffffffffffffff161415156105a157600080fd5b600073ffffffffffffffffffffffffffffffffffffffff168173ffffffffffffffffffffffffffffffffffffffff16141515156105dd57600080fd5b8073ffffffffffffffffffffffffffffffffffffffff166000809054906101000a900473ffffffffffffffffffffffffffffffffffffffff1673ffffffffffffffffffffffffffffffffffffffff167f8be0079c531659141344cd1fd0a4f28419497f9722a3daafe3b4186f6b6457e060405160405180910390a3806000806101000a81548173ffffffffffffffffffffffffffffffffffffffff021916908373ffffffffffffffffffffffffffffffffffffffff16021790555050565b6000809054906101000a900473ffffffffffffffffffffffffffffffffffffffff1673ffffffffffffffffffffffffffffffffffffffff163373ffffffffffffffffffffffffffffffffffffffff161415156106f657600080fd5b6000600281111561070357fe5b600260149054906101000a900460ff16600281111561071e57fe5b14151561072a57600080fd5b61077c34600160008473ffffffffffffffffffffffffffffffffffffffff1673ffffffffffffffffffffffffffffffffffffffff1681526020019081526020016000205461091190919063ffffffff16565b600160008373ffffffffffffffffffffffffffffffffffffffff1673ffffffffffffffffffffffffffffffffffffffff1681526020019081526020016000208190555050565b6000600160028111156107d157fe5b600260149054906101000a900460ff1660028111156107ec57fe5b1415156107f857600080fd5b600160008373ffffffffffffffffffffffffffffffffffffffff1673ffffffffffffffffffffffffffffffffffffffff1681526020019081526020016000205490506000600160008473ffffffffffffffffffffffffffffffffffffffff1673ffffffffffffffffffffffffffffffffffffffff168152602001908152602001600020819055508173ffffffffffffffffffffffffffffffffffffffff166108fc829081150290604051600060405180830381858888f1935050505015156108bf57600080fd5b8173ffffffffffffffffffffffffffffffffffffffff167fd7dee2702d63ad89917b6a4da9981c90c4d24f8c2bdfd64c604ecae57d8d0651826040518082815260200191505060405180910390a25050565b600080828401905083811015151561092557fe5b80915050929150505600a165627a7a72305820b87a923fac0d6cc256be75803efa30c9c36b24cd004a482e2a345e6c1c069e5d0029",
  "source": "pragma solidity ^0.4.19;\r\n\r\nimport \"./zeppelin/MintedCrowdsale.sol\";\r\nimport \"./zeppelin/CappedCrowdsale.sol\";\r\nimport \"./zeppelin/RefundableCrowdsale.sol\";\r\nimport \"./zeppelin/SafeMath.sol\";\r\nimport \"./PowerPiperToken.sol\";\r\n\r\n\r\ncontract PowerPiperCrowdsale is CappedCrowdsale, RefundableCrowdsale, MintedCrowdsale {\r\n    using SafeMath for uint;\r\n\r\n    struct Order {\r\n        address buyer;\r\n        uint amount;\r\n        uint timestamp;\r\n    }\r\n\r\n    struct Certificate {\r\n        bytes32 url;\r\n        uint amount;\r\n        uint timestamp;\r\n    }\r\n\r\n    struct Redemption {\r\n        address redeemer;\r\n        string location;\r\n        uint amount;\r\n        uint timestamp;\r\n    }\r\n\r\n    PowerPiperToken public token;\r\n    Order[] orders;\r\n    Redemption[] redemptions;\r\n    Certificate[] certificates;\r\n    uint public fee = 0;\r\n    uint reserves = 0;\r\n    uint availableTokens = 0;\r\n    uint energyPriceMarkup = 0;\r\n\r\n    event BuyDirectEvent(address _buyer, uint _amount, uint _timestamp);\r\n    event RedeemEvent(address _redeember, uint _amount, uint _timestamp);\r\n\r\n    function PowerPiperCrowdsale(uint256 _startTime, uint256 _endTime, uint256 _rate, uint256 _cap, address _wallet, MintableToken _token, uint256 _goal) public\r\n    Crowdsale(_rate, _wallet, _token)\r\n    CappedCrowdsale(_cap)\r\n    TimedCrowdsale(_startTime, _endTime)\r\n    RefundableCrowdsale(_goal)\r\n    {\r\n        require(_goal <= _cap);\r\n        fee = 100; // 100 = 0.1% in 1-digit precision\r\n        energyPriceMarkup = 1000; // 1000 = 1% in 3-digit precision\r\n    }\r\n\r\n    function addCertificate(bytes32 _url, uint _amount) public onlyOwner {\r\n        Certificate memory certificate = Certificate({\r\n            url: _url,\r\n            amount: _amount,\r\n            timestamp: now\r\n        });\r\n\r\n        reserves = reserves.add(certificate.amount);\r\n\r\n        certificates.push(certificate);\r\n    }\r\n\r\n    function getCertificatesLength() public constant onlyOwner returns (uint) {\r\n        return certificates.length;\r\n    }\r\n\r\n    function getReserves() public constant returns (uint) {\r\n        return reserves;\r\n    }\r\n\r\n    function getEnergyPriceMarkup() public constant returns (uint) {\r\n        return energyPriceMarkup;\r\n    }\r\n\r\n    function calculateFee(uint _amount) public constant returns (uint) {\r\n        uint feeAmount = _amount * fee / 1000;\r\n\r\n        if (feeAmount == 0) {\r\n            return 1;\r\n        } else {\r\n            return feeAmount;\r\n        }\r\n    }\r\n\r\n    function getCertificate(uint _index) public constant onlyOwner returns (bytes32, uint, uint) {\r\n        Certificate memory certificate = certificates[_index];\r\n        return (\r\n            certificate.url,\r\n            certificate.amount,\r\n            certificate.timestamp\r\n        );\r\n    }\r\n\r\n    function buyDirect() public payable {\r\n        require(msg.value > 0);\r\n\r\n        Order memory order = Order({\r\n            buyer: msg.sender,\r\n            amount: msg.value,\r\n            timestamp: now\r\n        });\r\n\r\n        orders.push(order);\r\n\r\n        BuyDirectEvent(order.buyer, order.amount, order.timestamp);\r\n    }\r\n\r\n    function redeem(uint _value, string _location) public returns (uint) {\r\n        require(token.balanceOf(msg.sender) >= _value);\r\n\r\n        token.approve(msg.sender, _value);\r\n        token.transferFrom(msg.sender, this, _value);\r\n\r\n        Redemption memory redemption = Redemption({\r\n            redeemer: msg.sender,\r\n            amount: _value,\r\n            location: _location,\r\n            timestamp: now\r\n        });\r\n\r\n        redemptions.push(redemption);\r\n\r\n        RedeemEvent(redemption.redeemer, redemption.amount, redemption.timestamp);\r\n    }\r\n\r\n    function tokensSupplyAvailable() public constant returns (int) {\r\n        return int(availableTokens) - int(token.totalSupply());\r\n    }\r\n\r\n    function setNewFee(uint _fee) public onlyOwner {\r\n        fee = _fee;\r\n    }\r\n\r\n    function hasEnded() public view returns (bool) {\r\n        return super.hasClosed();\r\n    }\r\n\r\n    function getTokenAmount(uint256 weiAmount) internal view returns(uint256) {\r\n        return super._getTokenAmount(weiAmount);\r\n    }\r\n\r\n    function forwardFunds() internal {\r\n        return super._forwardFunds();\r\n    }\r\n\r\n}",
  "sourcePath": "C:\\Users\\DXenu\\Desktop\\box\\demo_contract\\contracts\\PowerPiperCrowdsale.sol",
  "compiler": {
    "name": "solc",
    "version": "0.4.19+commit.c4cbbb05.Emscripten.clang"
  },
  "schemaVersion": "2.0.0",
  "updatedAt": "2018-03-31T17:48:08.880Z"
}