{
  "contractName": "PowerPiperCrowdsale",
  "abi": [
    {
      "constant": true,
      "inputs": [],
      "name": "hasClosed",
      "outputs": [
        {
          "name": "",
          "type": "bool"
        }
      ],
      "payable": false,
      "stateMutability": "view",
      "type": "function"
    },
    {
      "constant": true,
      "inputs": [],
      "name": "rate",
      "outputs": [
        {
          "name": "",
          "type": "uint256"
        }
      ],
      "payable": false,
      "stateMutability": "view",
      "type": "function"
    },
    {
      "constant": true,
      "inputs": [],
      "name": "cap",
      "outputs": [
        {
          "name": "",
          "type": "uint256"
        }
      ],
      "payable": false,
      "stateMutability": "view",
      "type": "function"
    },
    {
      "constant": true,
      "inputs": [],
      "name": "weiRaised",
      "outputs": [
        {
          "name": "",
          "type": "uint256"
        }
      ],
      "payable": false,
      "stateMutability": "view",
      "type": "function"
    },
    {
      "constant": true,
      "inputs": [],
      "name": "closingTime",
      "outputs": [
        {
          "name": "",
          "type": "uint256"
        }
      ],
      "payable": false,
      "stateMutability": "view",
      "type": "function"
    },
    {
      "constant": true,
      "inputs": [],
      "name": "capReached",
      "outputs": [
        {
          "name": "",
          "type": "bool"
        }
      ],
      "payable": false,
      "stateMutability": "view",
      "type": "function"
    },
    {
      "constant": true,
      "inputs": [],
      "name": "wallet",
      "outputs": [
        {
          "name": "",
          "type": "address"
        }
      ],
      "payable": false,
      "stateMutability": "view",
      "type": "function"
    },
    {
      "constant": true,
      "inputs": [],
      "name": "openingTime",
      "outputs": [
        {
          "name": "",
          "type": "uint256"
        }
      ],
      "payable": false,
      "stateMutability": "view",
      "type": "function"
    },
    {
      "constant": false,
      "inputs": [
        {
          "name": "_beneficiary",
          "type": "address"
        }
      ],
      "name": "buyTokens",
      "outputs": [],
      "payable": true,
      "stateMutability": "payable",
      "type": "function"
    },
    {
      "constant": true,
      "inputs": [],
      "name": "token",
      "outputs": [
        {
          "name": "",
          "type": "address"
        }
      ],
      "payable": false,
      "stateMutability": "view",
      "type": "function"
    },
    {
      "inputs": [
        {
          "name": "_openingTime",
          "type": "uint256"
        },
        {
          "name": "_closingTime",
          "type": "uint256"
        },
        {
          "name": "_rate",
          "type": "uint256"
        },
        {
          "name": "_wallet",
          "type": "address"
        },
        {
          "name": "_token",
          "type": "address"
        },
        {
          "name": "_cap",
          "type": "uint256"
        }
      ],
      "payable": false,
      "stateMutability": "nonpayable",
      "type": "constructor"
    },
    {
      "payable": true,
      "stateMutability": "payable",
      "type": "fallback"
    },
    {
      "anonymous": false,
      "inputs": [
        {
          "indexed": true,
          "name": "purchaser",
          "type": "address"
        },
        {
          "indexed": true,
          "name": "beneficiary",
          "type": "address"
        },
        {
          "indexed": false,
          "name": "value",
          "type": "uint256"
        },
        {
          "indexed": false,
          "name": "amount",
          "type": "uint256"
        }
      ],
      "name": "TokenPurchase",
      "type": "event"
    }
  ],
  "bytecode": "0x6060604052341561000f57600080fd5b60405160c08061088d8339810160405280805190602001909190805190602001909190805190602001909190805190602001909190805190602001909190805190602001909190505080868686868660008311151561006d57600080fd5b600073ffffffffffffffffffffffffffffffffffffffff168273ffffffffffffffffffffffffffffffffffffffff16141515156100a957600080fd5b600073ffffffffffffffffffffffffffffffffffffffff168173ffffffffffffffffffffffffffffffffffffffff16141515156100e557600080fd5b8260028190555081600160006101000a81548173ffffffffffffffffffffffffffffffffffffffff021916908373ffffffffffffffffffffffffffffffffffffffff160217905550806000806101000a81548173ffffffffffffffffffffffffffffffffffffffff021916908373ffffffffffffffffffffffffffffffffffffffff16021790555050505042821015151561017f57600080fd5b81811015151561018e57600080fd5b816004819055508060058190555050506000811115156101ad57600080fd5b80600681905550505050505050506106c3806101ca6000396000f3006060604052600436106100a4576000357c0100000000000000000000000000000000000000000000000000000000900463ffffffff1680631515bc2b146100af5780632c4e722e146100dc578063355274ea146101055780634042b66f1461012e5780634b6753bc146101575780634f93594514610180578063521eb273146101ad578063b7a8807c14610202578063ec8ac4d81461022b578063fc0c546a14610259575b6100ad336102ae565b005b34156100ba57600080fd5b6100c261037c565b604051808215151515815260200191505060405180910390f35b34156100e757600080fd5b6100ef610388565b6040518082815260200191505060405180910390f35b341561011057600080fd5b61011861038e565b6040518082815260200191505060405180910390f35b341561013957600080fd5b610141610394565b6040518082815260200191505060405180910390f35b341561016257600080fd5b61016a61039a565b6040518082815260200191505060405180910390f35b341561018b57600080fd5b6101936103a0565b604051808215151515815260200191505060405180910390f35b34156101b857600080fd5b6101c06103af565b604051808273ffffffffffffffffffffffffffffffffffffffff1673ffffffffffffffffffffffffffffffffffffffff16815260200191505060405180910390f35b341561020d57600080fd5b6102156103d5565b6040518082815260200191505060405180910390f35b610257600480803573ffffffffffffffffffffffffffffffffffffffff169060200190919050506102ae565b005b341561026457600080fd5b61026c6103db565b604051808273ffffffffffffffffffffffffffffffffffffffff1673ffffffffffffffffffffffffffffffffffffffff16815260200191505060405180910390f35b6000803491506102be8383610400565b6102c782610433565b90506102de8260035461045190919063ffffffff16565b6003819055506102ee838261046f565b8273ffffffffffffffffffffffffffffffffffffffff163373ffffffffffffffffffffffffffffffffffffffff167f623b3804fa71d67900d064613da8f94b9617215ee90799290593e1745087ad188484604051808381526020018281526020019250505060405180910390a3610365838361047d565b61036d610481565b61037783836104e5565b505050565b60006005544211905090565b60025481565b60065481565b60035481565b60055481565b60006006546003541015905090565b600160009054906101000a900473ffffffffffffffffffffffffffffffffffffffff1681565b60045481565b6000809054906101000a900473ffffffffffffffffffffffffffffffffffffffff1681565b61040a82826104e9565b6006546104228260035461045190919063ffffffff16565b1115151561042f57600080fd5b5050565b600061044a6002548361051690919063ffffffff16565b9050919050565b600080828401905083811015151561046557fe5b8091505092915050565b6104798282610551565b5050565b5050565b600160009054906101000a900473ffffffffffffffffffffffffffffffffffffffff1673ffffffffffffffffffffffffffffffffffffffff166108fc349081150290604051600060405180830381858888f1935050505015156104e357600080fd5b565b5050565b60045442101580156104fd57506005544211155b151561050857600080fd5b6105128282610647565b5050565b600080600084141561052b576000915061054a565b828402905082848281151561053c57fe5b0414151561054657fe5b8091505b5092915050565b6000809054906101000a900473ffffffffffffffffffffffffffffffffffffffff1673ffffffffffffffffffffffffffffffffffffffff166340c10f1983836000604051602001526040518363ffffffff167c0100000000000000000000000000000000000000000000000000000000028152600401808373ffffffffffffffffffffffffffffffffffffffff1673ffffffffffffffffffffffffffffffffffffffff16815260200182815260200192505050602060405180830381600087803b151561061d57600080fd5b6102c65a03f1151561062e57600080fd5b50505060405180519050151561064357600080fd5b5050565b600073ffffffffffffffffffffffffffffffffffffffff168273ffffffffffffffffffffffffffffffffffffffff161415151561068357600080fd5b6000811415151561069357600080fd5b50505600a165627a7a72305820d831ec5513892db7e6818a08719a0ab8a26c2c0a98c7ff28e8379770169fc3c50029",
  "source": "pragma solidity ^0.4.19;\r\n\r\nimport \"./PowerPiperToken.sol\";\r\nimport \"./zeppelin/MintedCrowdsale.sol\";\r\nimport \"./zeppelin/TimedCrowdsale.sol\";\r\nimport \"./zeppelin/CappedCrowdsale.sol\";\r\n// import \"./zeppelin/WhitelistedCrowdsale.sol\";\r\n// import \"./zeppelin/IncreasingPriceCrowdsale.sol\";\r\n\r\ncontract PowerPiperCrowdsale is TimedCrowdsale, MintedCrowdsale, CappedCrowdsale {\r\n    function PowerPiperCrowdsale(uint256 _openingTime, uint256 _closingTime, uint256 _rate, address _wallet, MintableToken _token, uint256 _cap) public\r\n    Crowdsale(_rate, _wallet, _token)\r\n    CappedCrowdsale(_cap)\r\n    TimedCrowdsale(_openingTime, _closingTime)\r\n    {\r\n\r\n    }\r\n\r\n    function createTokenContract() internal returns (MintableToken) {\r\n        return new PowerPiperToken();\r\n    }\r\n\r\n}\r\n",
  "sourcePath": "C:\\Users\\DXenu\\Desktop\\box\\demo_contract\\contracts\\PowerPiperCrowdsale.sol",
  "compiler": {
    "name": "solc",
    "version": "0.4.19+commit.c4cbbb05.Emscripten.clang"
  },
  "schemaVersion": "2.0.0",
  "updatedAt": "2018-03-16T18:57:05.713Z"
}